{
  "contractName": "Greeter",
  "abi": [
    {
      "inputs": [],
      "stateMutability": "nonpayable",
      "type": "constructor"
    },
    {
      "inputs": [
        {
          "internalType": "string",
          "name": "",
          "type": "string"
        }
      ],
      "name": "clini1_patients",
      "outputs": [
        {
          "internalType": "bool",
          "name": "",
          "type": "bool"
        }
      ],
      "stateMutability": "view",
      "type": "function"
    },
    {
      "inputs": [
        {
          "internalType": "string",
          "name": "",
          "type": "string"
        }
      ],
      "name": "clini2_patients",
      "outputs": [
        {
          "internalType": "bool",
          "name": "",
          "type": "bool"
        }
      ],
      "stateMutability": "view",
      "type": "function"
    },
    {
      "inputs": [
        {
          "internalType": "string",
          "name": "",
          "type": "string"
        }
      ],
      "name": "clini3_patients",
      "outputs": [
        {
          "internalType": "bool",
          "name": "",
          "type": "bool"
        }
      ],
      "stateMutability": "view",
      "type": "function"
    },
    {
      "inputs": [],
      "name": "greeting",
      "outputs": [
        {
          "internalType": "string",
          "name": "",
          "type": "string"
        }
      ],
      "stateMutability": "view",
      "type": "function"
    },
    {
      "inputs": [
        {
          "internalType": "string",
          "name": "_message",
          "type": "string"
        },
        {
          "internalType": "bytes32",
          "name": "hashed_message",
          "type": "bytes32"
        },
        {
          "internalType": "uint8",
          "name": "v",
          "type": "uint8"
        },
        {
          "internalType": "bytes32",
          "name": "r",
          "type": "bytes32"
        },
        {
          "internalType": "bytes32",
          "name": "s",
          "type": "bytes32"
        }
      ],
      "name": "add_patient",
      "outputs": [],
      "stateMutability": "nonpayable",
      "type": "function"
    },
    {
      "inputs": [
        {
          "internalType": "string",
          "name": "_message",
          "type": "string"
        },
        {
          "internalType": "bytes32",
          "name": "hashed_message",
          "type": "bytes32"
        },
        {
          "internalType": "uint8",
          "name": "v",
          "type": "uint8"
        },
        {
          "internalType": "bytes32",
          "name": "r",
          "type": "bytes32"
        },
        {
          "internalType": "bytes32",
          "name": "s",
          "type": "bytes32"
        }
      ],
      "name": "add_reg_visit",
      "outputs": [],
      "stateMutability": "nonpayable",
      "type": "function"
    },
    {
      "inputs": [
        {
          "internalType": "string",
          "name": "_message",
          "type": "string"
        },
        {
          "internalType": "bytes32",
          "name": "hashed_message",
          "type": "bytes32"
        },
        {
          "internalType": "uint8",
          "name": "v",
          "type": "uint8"
        },
        {
          "internalType": "bytes32",
          "name": "r",
          "type": "bytes32"
        },
        {
          "internalType": "bytes32",
          "name": "s",
          "type": "bytes32"
        }
      ],
      "name": "add_lab_visit",
      "outputs": [],
      "stateMutability": "nonpayable",
      "type": "function"
    },
    {
      "inputs": [
        {
          "internalType": "string",
          "name": "_message",
          "type": "string"
        },
        {
          "internalType": "bytes32",
          "name": "hashed_message",
          "type": "bytes32"
        },
        {
          "internalType": "uint8",
          "name": "v",
          "type": "uint8"
        },
        {
          "internalType": "bytes32",
          "name": "r",
          "type": "bytes32"
        },
        {
          "internalType": "bytes32",
          "name": "s",
          "type": "bytes32"
        }
      ],
      "name": "define_records",
      "outputs": [],
      "stateMutability": "nonpayable",
      "type": "function"
    },
    {
      "inputs": [],
      "name": "retrive_records",
      "outputs": [
        {
          "internalType": "string[]",
          "name": "",
          "type": "string[]"
        }
      ],
      "stateMutability": "nonpayable",
      "type": "function"
    },
    {
      "inputs": [],
      "name": "retrive_records1",
      "outputs": [
        {
          "internalType": "string[]",
          "name": "",
          "type": "string[]"
        }
      ],
      "stateMutability": "nonpayable",
      "type": "function"
    },
    {
      "inputs": [],
      "name": "retrive_records2",
      "outputs": [
        {
          "internalType": "string[]",
          "name": "",
          "type": "string[]"
        }
      ],
      "stateMutability": "nonpayable",
      "type": "function"
    },
    {
      "inputs": [],
      "name": "retrive_records3",
      "outputs": [
        {
          "internalType": "string[]",
          "name": "",
          "type": "string[]"
        }
      ],
      "stateMutability": "nonpayable",
      "type": "function"
    },
    {
      "inputs": [
        {
          "internalType": "bytes32",
          "name": "_ethSignedMessageHash",
          "type": "bytes32"
        },
        {
          "internalType": "uint8",
          "name": "v",
          "type": "uint8"
        },
        {
          "internalType": "bytes32",
          "name": "r",
          "type": "bytes32"
        },
        {
          "internalType": "bytes32",
          "name": "s",
          "type": "bytes32"
        }
      ],
      "name": "ret_add",
      "outputs": [
        {
          "internalType": "address",
          "name": "",
          "type": "address"
        }
      ],
      "stateMutability": "nonpayable",
      "type": "function"
    },
    {
      "inputs": [],
      "name": "greet",
      "outputs": [
        {
          "internalType": "string",
          "name": "",
          "type": "string"
        }
      ],
      "stateMutability": "view",
      "type": "function"
    },
    {
      "inputs": [],
      "name": "check1",
      "outputs": [
        {
          "internalType": "string",
          "name": "",
          "type": "string"
        }
      ],
      "stateMutability": "view",
      "type": "function"
    },
    {
      "inputs": [
        {
          "internalType": "string",
          "name": "_message",
          "type": "string"
        }
      ],
      "name": "check2",
      "outputs": [
        {
          "internalType": "bool",
          "name": "",
          "type": "bool"
        }
      ],
      "stateMutability": "view",
      "type": "function"
    },
    {
      "inputs": [
        {
          "internalType": "string",
          "name": "_message",
          "type": "string"
        }
      ],
      "name": "getMessageHash",
      "outputs": [
        {
          "internalType": "bytes32",
          "name": "",
          "type": "bytes32"
        }
      ],
      "stateMutability": "pure",
      "type": "function"
    },
    {
      "inputs": [
        {
          "internalType": "bytes32",
          "name": "_messageHash",
          "type": "bytes32"
        }
      ],
      "name": "getEthSignedMessageHash",
      "outputs": [
        {
          "internalType": "bytes32",
          "name": "",
          "type": "bytes32"
        }
      ],
      "stateMutability": "pure",
      "type": "function"
    },
    {
      "inputs": [
        {
          "internalType": "string",
          "name": "str",
          "type": "string"
        },
        {
          "internalType": "string",
          "name": "delimiter",
          "type": "string"
        }
      ],
      "name": "splitStr",
      "outputs": [],
      "stateMutability": "nonpayable",
      "type": "function"
    }
  ],
  "bytecode": "0x60806040523480156200001157600080fd5b506040518060400160405280600581526020017f48656c6c6f000000000000000000000000000000000000000000000000000000815250600090805190602001906200005f92919062000165565b50733ba20a3d2b870bc377f47ae68dae0845ed2c2ff4600260006101000a81548173ffffffffffffffffffffffffffffffffffffffff021916908373ffffffffffffffffffffffffffffffffffffffff16021790555073255d58708d85b74ff56fd2ba31ba23e04bd83163600560006101000a81548173ffffffffffffffffffffffffffffffffffffffff021916908373ffffffffffffffffffffffffffffffffffffffff160217905550731216fb7ca180fbcab13593c69acfca2f1aad0fad600860006101000a81548173ffffffffffffffffffffffffffffffffffffffff021916908373ffffffffffffffffffffffffffffffffffffffff16021790555062000279565b828054620001739062000244565b90600052602060002090601f016020900481019282620001975760008555620001e3565b82601f10620001b257805160ff1916838001178555620001e3565b82800160010185558215620001e3579182015b82811115620001e2578251825591602001919060010190620001c5565b5b509050620001f29190620001f6565b5090565b5b8082111562000211576000816000905550600101620001f7565b5090565b7f4e487b7100000000000000000000000000000000000000000000000000000000600052602260045260246000fd5b600060028204905060018216806200025d57607f821691505b60208210810362000273576200027262000215565b5b50919050565b612e1780620002896000396000f3fe608060405234801561001057600080fd5b50600436106101215760003560e01c8063782b6e49116100ad578063cfae321711610071578063cfae32171461031a578063d6e1a30214610338578063ded3182614610368578063ef690cc014610386578063fa540801146103a457610121565b8063782b6e49146102505780639d1a915514610280578063b446f3b2146102b0578063bc071dab146102e0578063bc76da15146102fe57610121565b806325d4dc53116100f457806325d4dc53146101ac57806328f49bce146101c8578063377564d5146101e65780634360fe9114610202578063736fc6b21461022057610121565b806312b0b6271461012657806313179280146101425780631b5e8b931461015e57806323300e501461017c575b600080fd5b610140600480360381019061013b919061244d565b6103d4565b005b61015c60048036038101906101579190612534565b610597565b005b6101666108d1565b6040516101739190612653565b60405180910390f35b61019660048036038101906101919190612675565b610980565b6040516101a391906126d9565b60405180910390f35b6101c660048036038101906101c19190612534565b6109b5565b005b6101d0610f0e565b6040516101dd9190612800565b60405180910390f35b61020060048036038101906101fb9190612534565b610fe7565b005b61020a611540565b6040516102179190612800565b60405180910390f35b61023a60048036038101906102359190612675565b611619565b60405161024791906126d9565b60405180910390f35b61026a60048036038101906102659190612675565b61164f565b60405161027791906126d9565b60405180910390f35b61029a60048036038101906102959190612675565b611685565b6040516102a791906126d9565b60405180910390f35b6102ca60048036038101906102c59190612675565b6116bb565b6040516102d79190612831565b60405180910390f35b6102e86116eb565b6040516102f59190612800565b60405180910390f35b61031860048036038101906103139190612534565b6117c4565b005b610322611d60565b60405161032f9190612653565b60405180910390f35b610352600480360381019061034d919061284c565b611df2565b60405161035f91906128f4565b60405180910390f35b610370611e4d565b60405161037d9190612800565b60405180910390f35b61038e611f26565b60405161039b9190612653565b60405180910390f35b6103be60048036038101906103b9919061290f565b611fb4565b6040516103cb9190612831565b60405180910390f35b6000829050600082905060005b825181101561058f57816000815181106103fe576103fd61293c565b5b602001015160f81c60f81b7effffffffffffffffffffffffffffffffffffffffffffffffffffffffffffff191683828151811061043e5761043d61293c565b5b602001015160f81c60f81b7effffffffffffffffffffffffffffffffffffffffffffffffffffffffffffff19161461053257600b8382815181106104855761048461293c565b5b602001015160f81c60f81b908080548061049e9061299a565b80601f81036104bd5783600052602060002060ff1984168155603f9350505b506002820183556001810192505050600190038154600116156104ef5790600052602060002090602091828204019190065b909190919091601f036101000a81548160ff021916907f01000000000000000000000000000000000000000000000000000000000000008404021790555061057c565b600b600c9080546105429061299a565b61054d929190611fe4565b5060405180602001604052806000815250600b9080519060200190610573929190612071565b50505050610593565b808061058790612a04565b9150506103e1565b5050505b5050565b60006105a2866116bb565b905060006105af82611fb4565b905060006105bf82878787611df2565b905086886040516020016105d39190612a88565b6040516020818303038152906040528051906020012014610629576040517f08c379a000000000000000000000000000000000000000000000000000000000815260040161062090612aeb565b60405180910390fd5b3373ffffffffffffffffffffffffffffffffffffffff168173ffffffffffffffffffffffffffffffffffffffff1614610697576040517f08c379a000000000000000000000000000000000000000000000000000000000815260040161068e90612b57565b60405180910390fd5b600260009054906101000a900473ffffffffffffffffffffffffffffffffffffffff1673ffffffffffffffffffffffffffffffffffffffff163373ffffffffffffffffffffffffffffffffffffffff160361076f576004886040516106fc9190612a88565b908152602001604051809103902060009054906101000a900460ff16610757576040517f08c379a000000000000000000000000000000000000000000000000000000000815260040161074e90612bc3565b60405180910390fd5b600360019080546107699291906120f7565b506108c7565b600560009054906101000a900473ffffffffffffffffffffffffffffffffffffffff1673ffffffffffffffffffffffffffffffffffffffff163373ffffffffffffffffffffffffffffffffffffffff1603610847576007886040516107d49190612a88565b908152602001604051809103902060009054906101000a900460ff1661082f576040517f08c379a000000000000000000000000000000000000000000000000000000000815260040161082690612bc3565b60405180910390fd5b600660019080546108419291906120f7565b506108c6565b600a886040516108579190612a88565b908152602001604051809103902060009054906101000a900460ff166108b2576040517f08c379a00000000000000000000000000000000000000000000000000000000081526004016108a990612bc3565b60405180910390fd5b600960019080546108c49291906120f7565b505b5b5050505050505050565b606060036000815481106108e8576108e761293c565b5b9060005260206000200180546108fd9061299a565b80601f01602080910402602001604051908101604052809291908181526020018280546109299061299a565b80156109765780601f1061094b57610100808354040283529160200191610976565b820191906000526020600020905b81548152906001019060200180831161095957829003601f168201915b5050505050905090565b60006004826040516109929190612a88565b908152602001604051809103902060009054906101000a900460ff169050919050565b60006109c0866116bb565b905060006109cd82611fb4565b905060006109dd82878787611df2565b905086886040516020016109f19190612a88565b6040516020818303038152906040528051906020012014610a47576040517f08c379a0000000000000000000000000000000000000000000000000000000008152600401610a3e90612aeb565b60405180910390fd5b3373ffffffffffffffffffffffffffffffffffffffff168173ffffffffffffffffffffffffffffffffffffffff1614610ab5576040517f08c379a0000000000000000000000000000000000000000000000000000000008152600401610aac90612b57565b60405180910390fd5b600260009054906101000a900473ffffffffffffffffffffffffffffffffffffffff1673ffffffffffffffffffffffffffffffffffffffff163373ffffffffffffffffffffffffffffffffffffffff1603610c4257610b49886040518060400160405280600181526020017f23000000000000000000000000000000000000000000000000000000000000008152506103d4565b6004600c604051610b5a9190612c77565b908152602001604051809103902060009054906101000a900460ff16610bb5576040517f08c379a0000000000000000000000000000000000000000000000000000000008152600401610bac90612bc3565b60405180910390fd5b600388908060018154018082558091505060019003906000526020600020016000909190919091509080519060200190610bf092919061215f565b506040518060400160405280600381526020017f332d31000000000000000000000000000000000000000000000000000000000081525060009080519060200190610c3c92919061215f565b50610f04565b600560009054906101000a900473ffffffffffffffffffffffffffffffffffffffff1673ffffffffffffffffffffffffffffffffffffffff163373ffffffffffffffffffffffffffffffffffffffff1603610dcf57610cd6886040518060400160405280600181526020017f23000000000000000000000000000000000000000000000000000000000000008152506103d4565b6007600c604051610ce79190612c77565b908152602001604051809103902060009054906101000a900460ff16610d42576040517f08c379a0000000000000000000000000000000000000000000000000000000008152600401610d3990612bc3565b60405180910390fd5b600688908060018154018082558091505060019003906000526020600020016000909190919091509080519060200190610d7d92919061215f565b506040518060400160405280600381526020017f332d32000000000000000000000000000000000000000000000000000000000081525060009080519060200190610dc992919061215f565b50610f03565b610e0e886040518060400160405280600181526020017f23000000000000000000000000000000000000000000000000000000000000008152506103d4565b600a600c604051610e1f9190612c77565b908152602001604051809103902060009054906101000a900460ff16610e7a576040517f08c379a0000000000000000000000000000000000000000000000000000000008152600401610e7190612bc3565b60405180910390fd5b600988908060018154018082558091505060019003906000526020600020016000909190919091509080519060200190610eb592919061215f565b506040518060400160405280600381526020017f332d33000000000000000000000000000000000000000000000000000000000081525060009080519060200190610f0192919061215f565b505b5b5050505050505050565b60606003805480602002602001604051908101604052809291908181526020016000905b82821015610fde578382906000526020600020018054610f519061299a565b80601f0160208091040260200160405190810160405280929190818152602001828054610f7d9061299a565b8015610fca5780601f10610f9f57610100808354040283529160200191610fca565b820191906000526020600020905b815481529060010190602001808311610fad57829003601f168201915b505050505081526020019060010190610f32565b50505050905090565b6000610ff2866116bb565b90506000610fff82611fb4565b9050600061100f82878787611df2565b905086886040516020016110239190612a88565b6040516020818303038152906040528051906020012014611079576040517f08c379a000000000000000000000000000000000000000000000000000000000815260040161107090612aeb565b60405180910390fd5b3373ffffffffffffffffffffffffffffffffffffffff168173ffffffffffffffffffffffffffffffffffffffff16146110e7576040517f08c379a00000000000000000000000000000000000000000000000000000000081526004016110de90612b57565b60405180910390fd5b600260009054906101000a900473ffffffffffffffffffffffffffffffffffffffff1673ffffffffffffffffffffffffffffffffffffffff163373ffffffffffffffffffffffffffffffffffffffff16036112745761117b886040518060400160405280600181526020017f23000000000000000000000000000000000000000000000000000000000000008152506103d4565b6004600c60405161118c9190612c77565b908152602001604051809103902060009054906101000a900460ff166111e7576040517f08c379a00000000000000000000000000000000000000000000000000000000081526004016111de90612bc3565b60405180910390fd5b60038890806001815401808255809150506001900390600052602060002001600090919091909150908051906020019061122292919061215f565b506040518060400160405280600381526020017f322d3100000000000000000000000000000000000000000000000000000000008152506000908051906020019061126e92919061215f565b50611536565b600560009054906101000a900473ffffffffffffffffffffffffffffffffffffffff1673ffffffffffffffffffffffffffffffffffffffff163373ffffffffffffffffffffffffffffffffffffffff160361140157611308886040518060400160405280600181526020017f23000000000000000000000000000000000000000000000000000000000000008152506103d4565b6007600c6040516113199190612c77565b908152602001604051809103902060009054906101000a900460ff16611374576040517f08c379a000000000000000000000000000000000000000000000000000000000815260040161136b90612bc3565b60405180910390fd5b6006889080600181540180825580915050600190039060005260206000200160009091909190915090805190602001906113af92919061215f565b506040518060400160405280600381526020017f322d320000000000000000000000000000000000000000000000000000000000815250600090805190602001906113fb92919061215f565b50611535565b611440886040518060400160405280600181526020017f23000000000000000000000000000000000000000000000000000000000000008152506103d4565b600a600c6040516114519190612c77565b908152602001604051809103902060009054906101000a900460ff166114ac576040517f08c379a00000000000000000000000000000000000000000000000000000000081526004016114a390612bc3565b60405180910390fd5b6009889080600181540180825580915050600190039060005260206000200160009091909190915090805190602001906114e792919061215f565b506040518060400160405280600381526020017f322d3300000000000000000000000000000000000000000000000000000000008152506000908051906020019061153392919061215f565b505b5b5050505050505050565b60606001805480602002602001604051908101604052809291908181526020016000905b828210156116105783829060005260206000200180546115839061299a565b80601f01602080910402602001604051908101604052809291908181526020018280546115af9061299a565b80156115fc5780601f106115d1576101008083540402835291602001916115fc565b820191906000526020600020905b8154815290600101906020018083116115df57829003601f168201915b505050505081526020019060010190611564565b50505050905090565b6007818051602081018201805184825260208301602085012081835280955050505050506000915054906101000a900460ff1681565b6004818051602081018201805184825260208301602085012081835280955050505050506000915054906101000a900460ff1681565b600a818051602081018201805184825260208301602085012081835280955050505050506000915054906101000a900460ff1681565b6000816040516020016116ce9190612a88565b604051602081830303815290604052805190602001209050919050565b60606006805480602002602001604051908101604052809291908181526020016000905b828210156117bb57838290600052602060002001805461172e9061299a565b80601f016020809104026020016040519081016040528092919081815260200182805461175a9061299a565b80156117a75780601f1061177c576101008083540402835291602001916117a7565b820191906000526020600020905b81548152906001019060200180831161178a57829003601f168201915b50505050508152602001906001019061170f565b50505050905090565b60006117cf866116bb565b905060006117dc82611fb4565b905060006117ec82878787611df2565b90503373ffffffffffffffffffffffffffffffffffffffff168173ffffffffffffffffffffffffffffffffffffffff161461185c576040517f08c379a000000000000000000000000000000000000000000000000000000000815260040161185390612b57565b60405180910390fd5b600260009054906101000a900473ffffffffffffffffffffffffffffffffffffffff1673ffffffffffffffffffffffffffffffffffffffff163373ffffffffffffffffffffffffffffffffffffffff1603611a22576118f0886040518060400160405280600181526020017f23000000000000000000000000000000000000000000000000000000000000008152506103d4565b6004600c6040516119019190612c77565b908152602001604051809103902060009054906101000a900460ff161561195d576040517f08c379a000000000000000000000000000000000000000000000000000000000815260040161195490612cda565b60405180910390fd5b60038890806001815401808255809150506001900390600052602060002001600090919091909150908051906020019061199892919061215f565b5060016004600c6040516119ac9190612c77565b908152602001604051809103902060006101000a81548160ff0219169083151502179055506040518060400160405280600181526020017f310000000000000000000000000000000000000000000000000000000000000081525060009080519060200190611a1c92919061215f565b50611d56565b600560009054906101000a900473ffffffffffffffffffffffffffffffffffffffff1673ffffffffffffffffffffffffffffffffffffffff163373ffffffffffffffffffffffffffffffffffffffff1603611be857611ab6886040518060400160405280600181526020017f23000000000000000000000000000000000000000000000000000000000000008152506103d4565b6007600c604051611ac79190612c77565b908152602001604051809103902060009054906101000a900460ff1615611b23576040517f08c379a0000000000000000000000000000000000000000000000000000000008152600401611b1a90612cda565b60405180910390fd5b600688908060018154018082558091505060019003906000526020600020016000909190919091509080519060200190611b5e92919061215f565b5060016007600c604051611b729190612c77565b908152602001604051809103902060006101000a81548160ff0219169083151502179055506040518060400160405280600181526020017f320000000000000000000000000000000000000000000000000000000000000081525060009080519060200190611be292919061215f565b50611d55565b611c27886040518060400160405280600181526020017f23000000000000000000000000000000000000000000000000000000000000008152506103d4565b600a600c604051611c389190612c77565b908152602001604051809103902060009054906101000a900460ff1615611c94576040517f08c379a0000000000000000000000000000000000000000000000000000000008152600401611c8b90612cda565b60405180910390fd5b600988908060018154018082558091505060019003906000526020600020016000909190919091509080519060200190611ccf92919061215f565b506001600a600c604051611ce39190612c77565b908152602001604051809103902060006101000a81548160ff0219169083151502179055506040518060400160405280600181526020017f330000000000000000000000000000000000000000000000000000000000000081525060009080519060200190611d5392919061215f565b505b5b5050505050505050565b606060008054611d6f9061299a565b80601f0160208091040260200160405190810160405280929190818152602001828054611d9b9061299a565b8015611de85780601f10611dbd57610100808354040283529160200191611de8565b820191906000526020600020905b815481529060010190602001808311611dcb57829003601f168201915b5050505050905090565b600060018585858560405160008152602001604052604051611e179493929190612d09565b6020604051602081039080840390855afa158015611e39573d6000803e3d6000fd5b505050602060405103519050949350505050565b60606009805480602002602001604051908101604052809291908181526020016000905b82821015611f1d578382906000526020600020018054611e909061299a565b80601f0160208091040260200160405190810160405280929190818152602001828054611ebc9061299a565b8015611f095780601f10611ede57610100808354040283529160200191611f09565b820191906000526020600020905b815481529060010190602001808311611eec57829003601f168201915b505050505081526020019060010190611e71565b50505050905090565b60008054611f339061299a565b80601f0160208091040260200160405190810160405280929190818152602001828054611f5f9061299a565b8015611fac5780601f10611f8157610100808354040283529160200191611fac565b820191906000526020600020905b815481529060010190602001808311611f8f57829003601f168201915b505050505081565b600081604051602001611fc79190612dbb565b604051602081830303815290604052805190602001209050919050565b828054611ff09061299a565b90600052602060002090601f0160209004810192826120125760008555612060565b82601f106120235780548555612060565b8280016001018555821561206057600052602060002091601f016020900482015b8281111561205f578254825591600101919060010190612044565b5b50905061206d91906121e5565b5090565b82805461207d9061299a565b90600052602060002090601f01602090048101928261209f57600085556120e6565b82601f106120b857805160ff19168380011785556120e6565b828001600101855582156120e6579182015b828111156120e55782518255916020019190600101906120ca565b5b5090506120f391906121e5565b5090565b82805482825590600052602060002090810192821561214e5760005260206000209182015b8281111561214d5782829080546121329061299a565b61213d929190612202565b509160010191906001019061211c565b5b50905061215b919061228f565b5090565b82805461216b9061299a565b90600052602060002090601f01602090048101928261218d57600085556121d4565b82601f106121a657805160ff19168380011785556121d4565b828001600101855582156121d4579182015b828111156121d35782518255916020019190600101906121b8565b5b5090506121e191906121e5565b5090565b5b808211156121fe5760008160009055506001016121e6565b5090565b82805461220e9061299a565b90600052602060002090601f016020900481019282612230576000855561227e565b82601f10612241578054855561227e565b8280016001018555821561227e57600052602060002091601f016020900482015b8281111561227d578254825591600101919060010190612262565b5b50905061228b91906121e5565b5090565b5b808211156122af57600081816122a691906122b3565b50600101612290565b5090565b5080546122bf9061299a565b6000825580601f106122d157506122f0565b601f0160209004906000526020600020908101906122ef91906121e5565b5b50565b6000604051905090565b600080fd5b600080fd5b600080fd5b600080fd5b6000601f19601f8301169050919050565b7f4e487b7100000000000000000000000000000000000000000000000000000000600052604160045260246000fd5b61235a82612311565b810181811067ffffffffffffffff8211171561237957612378612322565b5b80604052505050565b600061238c6122f3565b90506123988282612351565b919050565b600067ffffffffffffffff8211156123b8576123b7612322565b5b6123c182612311565b9050602081019050919050565b82818337600083830152505050565b60006123f06123eb8461239d565b612382565b90508281526020810184848401111561240c5761240b61230c565b5b6124178482856123ce565b509392505050565b600082601f83011261243457612433612307565b5b81356124448482602086016123dd565b91505092915050565b60008060408385031215612464576124636122fd565b5b600083013567ffffffffffffffff81111561248257612481612302565b5b61248e8582860161241f565b925050602083013567ffffffffffffffff8111156124af576124ae612302565b5b6124bb8582860161241f565b9150509250929050565b6000819050919050565b6124d8816124c5565b81146124e357600080fd5b50565b6000813590506124f5816124cf565b92915050565b600060ff82169050919050565b612511816124fb565b811461251c57600080fd5b50565b60008135905061252e81612508565b92915050565b600080600080600060a086880312156125505761254f6122fd565b5b600086013567ffffffffffffffff81111561256e5761256d612302565b5b61257a8882890161241f565b955050602061258b888289016124e6565b945050604061259c8882890161251f565b93505060606125ad888289016124e6565b92505060806125be888289016124e6565b9150509295509295909350565b600081519050919050565b600082825260208201905092915050565b60005b838110156126055780820151818401526020810190506125ea565b83811115612614576000848401525b50505050565b6000612625826125cb565b61262f81856125d6565b935061263f8185602086016125e7565b61264881612311565b840191505092915050565b6000602082019050818103600083015261266d818461261a565b905092915050565b60006020828403121561268b5761268a6122fd565b5b600082013567ffffffffffffffff8111156126a9576126a8612302565b5b6126b58482850161241f565b91505092915050565b60008115159050919050565b6126d3816126be565b82525050565b60006020820190506126ee60008301846126ca565b92915050565b600081519050919050565b600082825260208201905092915050565b6000819050602082019050919050565b600082825260208201905092915050565b600061273c826125cb565b6127468185612720565b93506127568185602086016125e7565b61275f81612311565b840191505092915050565b60006127768383612731565b905092915050565b6000602082019050919050565b6000612796826126f4565b6127a081856126ff565b9350836020820285016127b285612710565b8060005b858110156127ee57848403895281516127cf858261276a565b94506127da8361277e565b925060208a019950506001810190506127b6565b50829750879550505050505092915050565b6000602082019050818103600083015261281a818461278b565b905092915050565b61282b816124c5565b82525050565b60006020820190506128466000830184612822565b92915050565b60008060008060808587031215612866576128656122fd565b5b6000612874878288016124e6565b94505060206128858782880161251f565b9350506040612896878288016124e6565b92505060606128a7878288016124e6565b91505092959194509250565b600073ffffffffffffffffffffffffffffffffffffffff82169050919050565b60006128de826128b3565b9050919050565b6128ee816128d3565b82525050565b600060208201905061290960008301846128e5565b92915050565b600060208284031215612925576129246122fd565b5b6000612933848285016124e6565b91505092915050565b7f4e487b7100000000000000000000000000000000000000000000000000000000600052603260045260246000fd5b7f4e487b7100000000000000000000000000000000000000000000000000000000600052602260045260246000fd5b600060028204905060018216806129b257607f821691505b6020821081036129c5576129c461296b565b5b50919050565b7f4e487b7100000000000000000000000000000000000000000000000000000000600052601160045260246000fd5b6000819050919050565b6000612a0f826129fa565b91507fffffffffffffffffffffffffffffffffffffffffffffffffffffffffffffffff8203612a4157612a406129cb565b5b600182019050919050565b600081905092915050565b6000612a62826125cb565b612a6c8185612a4c565b9350612a7c8185602086016125e7565b80840191505092915050565b6000612a948284612a57565b915081905092915050565b7f6d65737361676520686173206265656e20616c74657264000000000000000000600082015250565b6000612ad56017836125d6565b9150612ae082612a9f565b602082019050919050565b60006020820190508181036000830152612b0481612ac8565b9050919050565b7f6164647265737320646f6e74206d617463680000000000000000000000000000600082015250565b6000612b416012836125d6565b9150612b4c82612b0b565b602082019050919050565b60006020820190508181036000830152612b7081612b34565b9050919050565b7f70617469656e7420646f6573206e6f7420657869737400000000000000000000600082015250565b6000612bad6016836125d6565b9150612bb882612b77565b602082019050919050565b60006020820190508181036000830152612bdc81612ba0565b9050919050565b60008190508160005260206000209050919050565b60008154612c058161299a565b612c0f8186612a4c565b94506001821660008114612c2a5760018114612c3b57612c6e565b60ff19831686528186019350612c6e565b612c4485612be3565b60005b83811015612c6657815481890152600182019150602081019050612c47565b838801955050505b50505092915050565b6000612c838284612bf8565b915081905092915050565b7f70617469656e7420616c72656164792065786973740000000000000000000000600082015250565b6000612cc46015836125d6565b9150612ccf82612c8e565b602082019050919050565b60006020820190508181036000830152612cf381612cb7565b9050919050565b612d03816124fb565b82525050565b6000608082019050612d1e6000830187612822565b612d2b6020830186612cfa565b612d386040830185612822565b612d456060830184612822565b95945050505050565b7f19457468657265756d205369676e6564204d6573736167653a0a333200000000600082015250565b6000612d84601c83612a4c565b9150612d8f82612d4e565b601c82019050919050565b6000819050919050565b612db5612db0826124c5565b612d9a565b82525050565b6000612dc682612d77565b9150612dd28284612da4565b6020820191508190509291505056fea264697066735822122023477d92169304b19042e459d25635ac2233c9f5a3a03d49708b3ba392e37df864736f6c634300080e0033",
  "immutableReferences": {},
  "source": "pragma solidity >=0.4.22 <0.9.0;\r\ncontract Greeter{\r\n\r\n    string public greeting;\r\n    \r\n\r\n    string[] in_clinic_records;\r\n    //clinic1 address, clinic1 registered_patients, clinic1 records\r\n    address clinic1_address;\r\n    string[] clinic1_records;\r\n    mapping(string => bool) public clini1_patients;\r\n\r\n\r\n    //clinic2 address, clinic2 registered_patients, clinic2 records\r\n    address clinic2_address;\r\n    string[] clinic2_records;\r\n    mapping(string => bool) public clini2_patients;\r\n\r\n\r\n    //clinic3 address, clinic3 registered_patients, clinic3 records\r\n    address clinic3_address;\r\n    string[] clinic3_records;\r\n    mapping(string => bool) public clini3_patients;\r\n\r\n\r\n    // used for splitting a string\r\n    bytes tempNum;\r\n    string id;\r\n    // ------------------------\r\n\r\n        constructor() public {\r\n             greeting = 'Hello';\r\n             clinic1_address = 0x3ba20A3D2b870BC377F47AE68dAE0845ed2c2fF4;\r\n             clinic2_address = 0x255d58708D85b74fF56Fd2ba31BA23E04bd83163;\r\n             clinic3_address = 0x1216Fb7CA180FBCAb13593c69acFcA2F1AAd0fAD;\r\n         }\r\n\r\n        function add_patient(string memory _message, bytes32 hashed_message, uint8 v, bytes32 r, bytes32 s) public {\r\n\r\n            bytes32 messageHash = getMessageHash(_message);\r\n            bytes32 ethSignedMessageHash = getEthSignedMessageHash(messageHash);\r\n            address retrived_address = ret_add(ethSignedMessageHash, v, r, s);\r\n\r\n            // making sure that the message was not manipulated\r\n            //require(keccak256(abi.encodePacked(_message)) == hashed_message, 'message has been alterd');\r\n            // making sure that the sender correspond to the address\r\n            require(retrived_address == msg.sender, 'address dont match');\r\n            if(msg.sender == clinic1_address) {   \r\n\r\n                // fetch the patient id\r\n                splitStr(_message, '#');\r\n                // make sure that this patient is not registered\r\n                require(!clini1_patients[id], 'patient already exist');\r\n                //add the patient record to the clinic records\r\n                clinic1_records.push(_message);\r\n                // patient added\r\n                clini1_patients[id] = true;\r\n                greeting = '1';\r\n\r\n            } else if(msg.sender == clinic2_address){\r\n\r\n                // fetch the patient id\r\n                splitStr(_message, '#');\r\n                // make sure that this patient is not registered\r\n                require(!clini2_patients[id], 'patient already exist');\r\n                //add the patient record to the clinic records\r\n                clinic2_records.push(_message);\r\n                // patient added\r\n                clini2_patients[id] = true;\r\n                greeting = '2';\r\n\r\n            } else {\r\n                // fetch the patient id\r\n                splitStr(_message, '#');\r\n                // make sure that this patient is not registered\r\n                require(!clini3_patients[id], 'patient already exist');\r\n                //add the patient record to the clinic records\r\n                clinic3_records.push(_message);\r\n                // patient added\r\n                clini3_patients[id] = true;\r\n                greeting = '3';\r\n            }       \r\n                \r\n        }\r\n\r\n        function add_reg_visit(string memory _message, bytes32 hashed_message, uint8 v, bytes32 r, bytes32 s) public {\r\n\r\n            bytes32 messageHash = getMessageHash(_message);\r\n            bytes32 ethSignedMessageHash = getEthSignedMessageHash(messageHash);\r\n            address retrived_address = ret_add(ethSignedMessageHash, v, r, s);\r\n\r\n            // making sure that the message was not manipulated\r\n            require(keccak256(abi.encodePacked(_message)) == hashed_message, 'message has been alterd');\r\n            // making sure that the sender correspond to the address\r\n            require(retrived_address == msg.sender, 'address dont match');\r\n            \r\n            if(msg.sender == clinic1_address) {   \r\n\r\n                // fetch the patient id\r\n                splitStr(_message, '#');\r\n                // make sure that this patient is registered\r\n                require(clini1_patients[id], 'patient does not exist');\r\n                //add the patient record to the clinic records\r\n                clinic1_records.push(_message);\r\n                \r\n                greeting = '2-1';\r\n\r\n            } else if(msg.sender == clinic2_address){\r\n\r\n                // fetch the patient id\r\n                splitStr(_message, '#');\r\n                // make sure that this patient is not registered\r\n                require(clini2_patients[id], 'patient does not exist');\r\n                //add the patient record to the clinic records\r\n                clinic2_records.push(_message);\r\n                \r\n                greeting = '2-2';\r\n\r\n            } else {\r\n                // fetch the patient id\r\n                splitStr(_message, '#');\r\n                // make sure that this patient is not registered\r\n                require(clini3_patients[id], 'patient does not exist');\r\n                //add the patient record to the clinic records\r\n                clinic3_records.push(_message);\r\n                \r\n                greeting = '2-3';\r\n            }       \r\n            \r\n        }\r\n\r\n        function add_lab_visit(string memory _message, bytes32 hashed_message, uint8 v, bytes32 r, bytes32 s) public {\r\n\r\n            bytes32 messageHash = getMessageHash(_message);\r\n            bytes32 ethSignedMessageHash = getEthSignedMessageHash(messageHash);\r\n            address retrived_address = ret_add(ethSignedMessageHash, v, r, s);\r\n\r\n            // making sure that the message was not manipulated\r\n            require(keccak256(abi.encodePacked(_message)) == hashed_message, 'message has been alterd');\r\n            // making sure that the sender correspond to the address\r\n            require(retrived_address == msg.sender, 'address dont match');\r\n\r\n            if(msg.sender == clinic1_address) {   \r\n\r\n                // fetch the patient id\r\n                splitStr(_message, '#');\r\n                // make sure that this patient is registered\r\n                require(clini1_patients[id], 'patient does not exist');\r\n                //add the patient record to the clinic records\r\n                clinic1_records.push(_message);\r\n                \r\n                greeting = '3-1';\r\n\r\n            } else if(msg.sender == clinic2_address){\r\n\r\n                // fetch the patient id\r\n                splitStr(_message, '#');\r\n                // make sure that this patient is not registered\r\n                require(clini2_patients[id], 'patient does not exist');\r\n                //add the patient record to the clinic records\r\n                clinic2_records.push(_message);\r\n                \r\n                greeting = '3-2';\r\n\r\n            } else {\r\n                // fetch the patient id\r\n                splitStr(_message, '#');\r\n                // make sure that this patient is not registered\r\n                require(clini3_patients[id], 'patient does not exist');\r\n                //add the patient record to the clinic records\r\n                clinic3_records.push(_message);\r\n                \r\n                greeting = '3-3';\r\n            }       \r\n            \r\n        }\r\n\r\n        function define_records(string memory _message, bytes32 hashed_message, uint8 v, bytes32 r, bytes32 s) public{\r\n\r\n            bytes32 messageHash = getMessageHash(_message);\r\n            bytes32 ethSignedMessageHash = getEthSignedMessageHash(messageHash);\r\n            address retrived_address = ret_add(ethSignedMessageHash, v, r, s);\r\n\r\n            // making sure that the message was not manipulated\r\n            require(keccak256(abi.encodePacked(_message)) == hashed_message, 'message has been alterd');\r\n            // making sure that the sender correspond to the address\r\n            require(retrived_address == msg.sender, 'address dont match');\r\n\r\n            if(msg.sender == clinic1_address) {  \r\n\r\n                require(clini1_patients[_message], 'patient does not exist');\r\n                in_clinic_records = clinic1_records;\r\n\r\n            } else if(msg.sender == clinic2_address){\r\n\r\n                require(clini2_patients[_message], 'patient does not exist');\r\n                in_clinic_records = clinic2_records;\r\n\r\n            } else {\r\n                require(clini3_patients[_message], 'patient does not exist');\r\n                in_clinic_records = clinic3_records;\r\n            }       \r\n            \r\n        }\r\n\r\n        function retrive_records() public returns (string[] memory)\r\n        {\r\n            return in_clinic_records;\r\n        }\r\n\r\n        //////////////////////////////////////////// helpers ////////////////////////////////////////////////\r\n        \r\n        function retrive_records1() public returns (string[] memory)\r\n        {\r\n            return clinic1_records;\r\n        }\r\n\r\n        function retrive_records2() public returns (string[] memory)\r\n        {\r\n            return clinic2_records;\r\n        }\r\n\r\n        function retrive_records3() public returns (string[] memory)\r\n        {\r\n            return clinic3_records;\r\n        }\r\n\r\n        function ret_add(bytes32 _ethSignedMessageHash, uint8 v, bytes32 r, bytes32 s) public returns(address)\r\n        {\r\n            return ecrecover(_ethSignedMessageHash, v, r, s);\r\n        }\r\n\r\n\r\n        function greet() view public returns (string memory) {\r\n             return greeting;\r\n        }\r\n\r\n\r\n        function check1() view public returns (string memory ) {\r\n             return clinic1_records[0];\r\n        }\r\n\r\n        function check2(string memory _message) view public returns (bool) {\r\n             return clini1_patients[_message];\r\n        }\r\n\r\n        function getMessageHash(\r\n                string memory _message\r\n            ) public pure returns (bytes32) {\r\n                return keccak256(abi.encodePacked(_message));\r\n            }\r\n\r\n        function getEthSignedMessageHash(bytes32 _messageHash)\r\n            public\r\n            pure\r\n            returns (bytes32)\r\n        {\r\n            return\r\n                keccak256(\r\n                    abi.encodePacked(\"\\x19Ethereum Signed Message:\\n32\", _messageHash)\r\n                );\r\n        }\r\n\r\n        \r\n        function splitStr(string memory str, string memory delimiter) public { //delimiter can be any character that separates the integers \r\n\r\n        bytes memory b = bytes(str); //cast the string to bytes to iterate\r\n        bytes memory delm = bytes(delimiter);\r\n        \r\n        for(uint i; i<b.length ; i++){          \r\n\r\n            if(b[i] != delm[0]) { //check if a not space\r\n                tempNum.push(b[i]);             \r\n            }\r\n            else { \r\n                id = string(tempNum);\r\n                tempNum = \"\";   //reset the tempNum to catch the net number        \r\n                return;         \r\n            }                \r\n        }\r\n        }\r\n}",
  "sourcePath": "C:\\Users\\mo7amad mo3taz\\Desktop\\security project\\python_edition\\pythonDapp\\contracts\\Greeter.sol",
  "compiler": {
    "name": "solc",
    "version": "0.8.14+commit.80d49f37.Emscripten.clang"
  },
  "schemaVersion": "3.4.7",
  "updatedAt": "2022-06-11T16:08:50.131Z",
  "devdoc": {
    "kind": "dev",
    "methods": {},
    "version": 1
  },
  "userdoc": {
    "kind": "user",
    "methods": {},
    "version": 1
  }
}