{
  "contractName": "Greeter",
  "abi": [
    {
      "inputs": [],
      "stateMutability": "nonpayable",
      "type": "constructor"
    },
    {
      "inputs": [
        {
          "internalType": "string",
          "name": "",
          "type": "string"
        }
      ],
      "name": "clini1_patients",
      "outputs": [
        {
          "internalType": "bool",
          "name": "",
          "type": "bool"
        }
      ],
      "stateMutability": "view",
      "type": "function"
    },
    {
      "inputs": [
        {
          "internalType": "string",
          "name": "",
          "type": "string"
        }
      ],
      "name": "clini2_patients",
      "outputs": [
        {
          "internalType": "bool",
          "name": "",
          "type": "bool"
        }
      ],
      "stateMutability": "view",
      "type": "function"
    },
    {
      "inputs": [
        {
          "internalType": "string",
          "name": "",
          "type": "string"
        }
      ],
      "name": "clini3_patients",
      "outputs": [
        {
          "internalType": "bool",
          "name": "",
          "type": "bool"
        }
      ],
      "stateMutability": "view",
      "type": "function"
    },
    {
      "inputs": [],
      "name": "greeting",
      "outputs": [
        {
          "internalType": "string",
          "name": "",
          "type": "string"
        }
      ],
      "stateMutability": "view",
      "type": "function"
    },
    {
      "inputs": [
        {
          "internalType": "string",
          "name": "_message",
          "type": "string"
        },
        {
          "internalType": "bytes32",
          "name": "hashed_message",
          "type": "bytes32"
        },
        {
          "internalType": "uint8",
          "name": "v",
          "type": "uint8"
        },
        {
          "internalType": "bytes32",
          "name": "r",
          "type": "bytes32"
        },
        {
          "internalType": "bytes32",
          "name": "s",
          "type": "bytes32"
        }
      ],
      "name": "add_patient",
      "outputs": [],
      "stateMutability": "nonpayable",
      "type": "function"
    },
    {
      "inputs": [
        {
          "internalType": "string",
          "name": "_message",
          "type": "string"
        },
        {
          "internalType": "bytes32",
          "name": "hashed_message",
          "type": "bytes32"
        },
        {
          "internalType": "uint8",
          "name": "v",
          "type": "uint8"
        },
        {
          "internalType": "bytes32",
          "name": "r",
          "type": "bytes32"
        },
        {
          "internalType": "bytes32",
          "name": "s",
          "type": "bytes32"
        }
      ],
      "name": "add_reg_visit",
      "outputs": [],
      "stateMutability": "nonpayable",
      "type": "function"
    },
    {
      "inputs": [
        {
          "internalType": "string",
          "name": "_message",
          "type": "string"
        },
        {
          "internalType": "bytes32",
          "name": "hashed_message",
          "type": "bytes32"
        },
        {
          "internalType": "uint8",
          "name": "v",
          "type": "uint8"
        },
        {
          "internalType": "bytes32",
          "name": "r",
          "type": "bytes32"
        },
        {
          "internalType": "bytes32",
          "name": "s",
          "type": "bytes32"
        }
      ],
      "name": "add_lab_visit",
      "outputs": [],
      "stateMutability": "nonpayable",
      "type": "function"
    },
    {
      "inputs": [
        {
          "internalType": "string",
          "name": "_message",
          "type": "string"
        },
        {
          "internalType": "bytes32",
          "name": "hashed_message",
          "type": "bytes32"
        },
        {
          "internalType": "uint8",
          "name": "v",
          "type": "uint8"
        },
        {
          "internalType": "bytes32",
          "name": "r",
          "type": "bytes32"
        },
        {
          "internalType": "bytes32",
          "name": "s",
          "type": "bytes32"
        }
      ],
      "name": "define_records",
      "outputs": [],
      "stateMutability": "nonpayable",
      "type": "function"
    },
    {
      "inputs": [],
      "name": "retrive_records",
      "outputs": [
        {
          "internalType": "string[]",
          "name": "",
          "type": "string[]"
        }
      ],
      "stateMutability": "nonpayable",
      "type": "function"
    },
    {
      "inputs": [
        {
          "internalType": "bytes32",
          "name": "_ethSignedMessageHash",
          "type": "bytes32"
        },
        {
          "internalType": "uint8",
          "name": "v",
          "type": "uint8"
        },
        {
          "internalType": "bytes32",
          "name": "r",
          "type": "bytes32"
        },
        {
          "internalType": "bytes32",
          "name": "s",
          "type": "bytes32"
        }
      ],
      "name": "ret_add",
      "outputs": [
        {
          "internalType": "address",
          "name": "",
          "type": "address"
        }
      ],
      "stateMutability": "nonpayable",
      "type": "function"
    },
    {
      "inputs": [],
      "name": "greet",
      "outputs": [
        {
          "internalType": "string",
          "name": "",
          "type": "string"
        }
      ],
      "stateMutability": "view",
      "type": "function"
    },
    {
      "inputs": [],
      "name": "check1",
      "outputs": [
        {
          "internalType": "string",
          "name": "",
          "type": "string"
        }
      ],
      "stateMutability": "view",
      "type": "function"
    },
    {
      "inputs": [
        {
          "internalType": "string",
          "name": "_message",
          "type": "string"
        }
      ],
      "name": "check2",
      "outputs": [
        {
          "internalType": "bool",
          "name": "",
          "type": "bool"
        }
      ],
      "stateMutability": "view",
      "type": "function"
    },
    {
      "inputs": [
        {
          "internalType": "string",
          "name": "_message",
          "type": "string"
        }
      ],
      "name": "getMessageHash",
      "outputs": [
        {
          "internalType": "bytes32",
          "name": "",
          "type": "bytes32"
        }
      ],
      "stateMutability": "pure",
      "type": "function"
    },
    {
      "inputs": [
        {
          "internalType": "bytes32",
          "name": "_messageHash",
          "type": "bytes32"
        }
      ],
      "name": "getEthSignedMessageHash",
      "outputs": [
        {
          "internalType": "bytes32",
          "name": "",
          "type": "bytes32"
        }
      ],
      "stateMutability": "pure",
      "type": "function"
    },
    {
      "inputs": [
        {
          "internalType": "string",
          "name": "str",
          "type": "string"
        },
        {
          "internalType": "string",
          "name": "delimiter",
          "type": "string"
        }
      ],
      "name": "splitStr",
      "outputs": [],
      "stateMutability": "nonpayable",
      "type": "function"
    }
  ],
  "bytecode": "0x60806040523480156200001157600080fd5b506040518060400160405280600581526020017f48656c6c6f000000000000000000000000000000000000000000000000000000815250600090805190602001906200005f92919062000165565b5073a18701fcefcb34548e3f1168018072acfced24a3600260006101000a81548173ffffffffffffffffffffffffffffffffffffffff021916908373ffffffffffffffffffffffffffffffffffffffff1602179055507376d4fcf227af4a6464f093566ed980dfe7227cb8600560006101000a81548173ffffffffffffffffffffffffffffffffffffffff021916908373ffffffffffffffffffffffffffffffffffffffff16021790555073042607f7a3ced2e6014d0b23e869edd5471a54bc600860006101000a81548173ffffffffffffffffffffffffffffffffffffffff021916908373ffffffffffffffffffffffffffffffffffffffff16021790555062000279565b828054620001739062000244565b90600052602060002090601f016020900481019282620001975760008555620001e3565b82601f10620001b257805160ff1916838001178555620001e3565b82800160010185558215620001e3579182015b82811115620001e2578251825591602001919060010190620001c5565b5b509050620001f29190620001f6565b5090565b5b8082111562000211576000816000905550600101620001f7565b5090565b7f4e487b7100000000000000000000000000000000000000000000000000000000600052602260045260246000fd5b600060028204905060018216806200025d57607f821691505b60208210810362000273576200027262000215565b5b50919050565b612b7980620002896000396000f3fe608060405234801561001057600080fd5b50600436106101005760003560e01c8063782b6e4911610097578063cfae321711610066578063cfae3217146102bd578063d6e1a302146102db578063ef690cc01461030b578063fa5408011461032957610100565b8063782b6e49146102115780639d1a915514610241578063b446f3b214610271578063bc76da15146102a157610100565b806325d4dc53116100d357806325d4dc531461018b578063377564d5146101a75780634360fe91146101c3578063736fc6b2146101e157610100565b806312b0b6271461010557806313179280146101215780631b5e8b931461013d57806323300e501461015b575b600080fd5b61011f600480360381019061011a91906121af565b610359565b005b61013b60048036038101906101369190612296565b61051c565b005b610145610856565b60405161015291906123b5565b60405180910390f35b610175600480360381019061017091906123d7565b610905565b604051610182919061243b565b60405180910390f35b6101a560048036038101906101a09190612296565b61093a565b005b6101c160048036038101906101bc9190612296565b610e93565b005b6101cb6113ec565b6040516101d89190612562565b60405180910390f35b6101fb60048036038101906101f691906123d7565b6114c5565b604051610208919061243b565b60405180910390f35b61022b600480360381019061022691906123d7565b6114fb565b604051610238919061243b565b60405180910390f35b61025b600480360381019061025691906123d7565b611531565b604051610268919061243b565b60405180910390f35b61028b600480360381019061028691906123d7565b611567565b6040516102989190612593565b60405180910390f35b6102bb60048036038101906102b69190612296565b611597565b005b6102c5611b9b565b6040516102d291906123b5565b60405180910390f35b6102f560048036038101906102f091906125ae565b611c2d565b6040516103029190612656565b60405180910390f35b610313611c88565b60405161032091906123b5565b60405180910390f35b610343600480360381019061033e9190612671565b611d16565b6040516103509190612593565b60405180910390f35b6000829050600082905060005b825181101561051457816000815181106103835761038261269e565b5b602001015160f81c60f81b7effffffffffffffffffffffffffffffffffffffffffffffffffffffffffffff19168382815181106103c3576103c261269e565b5b602001015160f81c60f81b7effffffffffffffffffffffffffffffffffffffffffffffffffffffffffffff1916146104b757600b83828151811061040a5761040961269e565b5b602001015160f81c60f81b9080805480610423906126fc565b80601f81036104425783600052602060002060ff1984168155603f9350505b506002820183556001810192505050600190038154600116156104745790600052602060002090602091828204019190065b909190919091601f036101000a81548160ff021916907f010000000000000000000000000000000000000000000000000000000000000084040217905550610501565b600b600c9080546104c7906126fc565b6104d2929190611d46565b5060405180602001604052806000815250600b90805190602001906104f8929190611dd3565b50505050610518565b808061050c90612766565b915050610366565b5050505b5050565b600061052786611567565b9050600061053482611d16565b9050600061054482878787611c2d565b9050868860405160200161055891906127ea565b60405160208183030381529060405280519060200120146105ae576040517f08c379a00000000000000000000000000000000000000000000000000000000081526004016105a59061284d565b60405180910390fd5b3373ffffffffffffffffffffffffffffffffffffffff168173ffffffffffffffffffffffffffffffffffffffff161461061c576040517f08c379a0000000000000000000000000000000000000000000000000000000008152600401610613906128b9565b60405180910390fd5b600260009054906101000a900473ffffffffffffffffffffffffffffffffffffffff1673ffffffffffffffffffffffffffffffffffffffff163373ffffffffffffffffffffffffffffffffffffffff16036106f45760048860405161068191906127ea565b908152602001604051809103902060009054906101000a900460ff166106dc576040517f08c379a00000000000000000000000000000000000000000000000000000000081526004016106d390612925565b60405180910390fd5b600360019080546106ee929190611e59565b5061084c565b600560009054906101000a900473ffffffffffffffffffffffffffffffffffffffff1673ffffffffffffffffffffffffffffffffffffffff163373ffffffffffffffffffffffffffffffffffffffff16036107cc5760078860405161075991906127ea565b908152602001604051809103902060009054906101000a900460ff166107b4576040517f08c379a00000000000000000000000000000000000000000000000000000000081526004016107ab90612925565b60405180910390fd5b600660019080546107c6929190611e59565b5061084b565b600a886040516107dc91906127ea565b908152602001604051809103902060009054906101000a900460ff16610837576040517f08c379a000000000000000000000000000000000000000000000000000000000815260040161082e90612925565b60405180910390fd5b60096001908054610849929190611e59565b505b5b5050505050505050565b6060600360008154811061086d5761086c61269e565b5b906000526020600020018054610882906126fc565b80601f01602080910402602001604051908101604052809291908181526020018280546108ae906126fc565b80156108fb5780601f106108d0576101008083540402835291602001916108fb565b820191906000526020600020905b8154815290600101906020018083116108de57829003601f168201915b5050505050905090565b600060048260405161091791906127ea565b908152602001604051809103902060009054906101000a900460ff169050919050565b600061094586611567565b9050600061095282611d16565b9050600061096282878787611c2d565b9050868860405160200161097691906127ea565b60405160208183030381529060405280519060200120146109cc576040517f08c379a00000000000000000000000000000000000000000000000000000000081526004016109c39061284d565b60405180910390fd5b3373ffffffffffffffffffffffffffffffffffffffff168173ffffffffffffffffffffffffffffffffffffffff1614610a3a576040517f08c379a0000000000000000000000000000000000000000000000000000000008152600401610a31906128b9565b60405180910390fd5b600260009054906101000a900473ffffffffffffffffffffffffffffffffffffffff1673ffffffffffffffffffffffffffffffffffffffff163373ffffffffffffffffffffffffffffffffffffffff1603610bc757610ace886040518060400160405280600181526020017f2300000000000000000000000000000000000000000000000000000000000000815250610359565b6004600c604051610adf91906129d9565b908152602001604051809103902060009054906101000a900460ff16610b3a576040517f08c379a0000000000000000000000000000000000000000000000000000000008152600401610b3190612925565b60405180910390fd5b600388908060018154018082558091505060019003906000526020600020016000909190919091509080519060200190610b75929190611ec1565b506040518060400160405280600381526020017f332d31000000000000000000000000000000000000000000000000000000000081525060009080519060200190610bc1929190611ec1565b50610e89565b600560009054906101000a900473ffffffffffffffffffffffffffffffffffffffff1673ffffffffffffffffffffffffffffffffffffffff163373ffffffffffffffffffffffffffffffffffffffff1603610d5457610c5b886040518060400160405280600181526020017f2300000000000000000000000000000000000000000000000000000000000000815250610359565b6007600c604051610c6c91906129d9565b908152602001604051809103902060009054906101000a900460ff16610cc7576040517f08c379a0000000000000000000000000000000000000000000000000000000008152600401610cbe90612925565b60405180910390fd5b600688908060018154018082558091505060019003906000526020600020016000909190919091509080519060200190610d02929190611ec1565b506040518060400160405280600381526020017f332d32000000000000000000000000000000000000000000000000000000000081525060009080519060200190610d4e929190611ec1565b50610e88565b610d93886040518060400160405280600181526020017f2300000000000000000000000000000000000000000000000000000000000000815250610359565b600a600c604051610da491906129d9565b908152602001604051809103902060009054906101000a900460ff16610dff576040517f08c379a0000000000000000000000000000000000000000000000000000000008152600401610df690612925565b60405180910390fd5b600988908060018154018082558091505060019003906000526020600020016000909190919091509080519060200190610e3a929190611ec1565b506040518060400160405280600381526020017f332d33000000000000000000000000000000000000000000000000000000000081525060009080519060200190610e86929190611ec1565b505b5b5050505050505050565b6000610e9e86611567565b90506000610eab82611d16565b90506000610ebb82878787611c2d565b90508688604051602001610ecf91906127ea565b6040516020818303038152906040528051906020012014610f25576040517f08c379a0000000000000000000000000000000000000000000000000000000008152600401610f1c9061284d565b60405180910390fd5b3373ffffffffffffffffffffffffffffffffffffffff168173ffffffffffffffffffffffffffffffffffffffff1614610f93576040517f08c379a0000000000000000000000000000000000000000000000000000000008152600401610f8a906128b9565b60405180910390fd5b600260009054906101000a900473ffffffffffffffffffffffffffffffffffffffff1673ffffffffffffffffffffffffffffffffffffffff163373ffffffffffffffffffffffffffffffffffffffff160361112057611027886040518060400160405280600181526020017f2300000000000000000000000000000000000000000000000000000000000000815250610359565b6004600c60405161103891906129d9565b908152602001604051809103902060009054906101000a900460ff16611093576040517f08c379a000000000000000000000000000000000000000000000000000000000815260040161108a90612925565b60405180910390fd5b6003889080600181540180825580915050600190039060005260206000200160009091909190915090805190602001906110ce929190611ec1565b506040518060400160405280600381526020017f322d3100000000000000000000000000000000000000000000000000000000008152506000908051906020019061111a929190611ec1565b506113e2565b600560009054906101000a900473ffffffffffffffffffffffffffffffffffffffff1673ffffffffffffffffffffffffffffffffffffffff163373ffffffffffffffffffffffffffffffffffffffff16036112ad576111b4886040518060400160405280600181526020017f2300000000000000000000000000000000000000000000000000000000000000815250610359565b6007600c6040516111c591906129d9565b908152602001604051809103902060009054906101000a900460ff16611220576040517f08c379a000000000000000000000000000000000000000000000000000000000815260040161121790612925565b60405180910390fd5b60068890806001815401808255809150506001900390600052602060002001600090919091909150908051906020019061125b929190611ec1565b506040518060400160405280600381526020017f322d320000000000000000000000000000000000000000000000000000000000815250600090805190602001906112a7929190611ec1565b506113e1565b6112ec886040518060400160405280600181526020017f2300000000000000000000000000000000000000000000000000000000000000815250610359565b600a600c6040516112fd91906129d9565b908152602001604051809103902060009054906101000a900460ff16611358576040517f08c379a000000000000000000000000000000000000000000000000000000000815260040161134f90612925565b60405180910390fd5b600988908060018154018082558091505060019003906000526020600020016000909190919091509080519060200190611393929190611ec1565b506040518060400160405280600381526020017f322d330000000000000000000000000000000000000000000000000000000000815250600090805190602001906113df929190611ec1565b505b5b5050505050505050565b60606001805480602002602001604051908101604052809291908181526020016000905b828210156114bc57838290600052602060002001805461142f906126fc565b80601f016020809104026020016040519081016040528092919081815260200182805461145b906126fc565b80156114a85780601f1061147d576101008083540402835291602001916114a8565b820191906000526020600020905b81548152906001019060200180831161148b57829003601f168201915b505050505081526020019060010190611410565b50505050905090565b6007818051602081018201805184825260208301602085012081835280955050505050506000915054906101000a900460ff1681565b6004818051602081018201805184825260208301602085012081835280955050505050506000915054906101000a900460ff1681565b600a818051602081018201805184825260208301602085012081835280955050505050506000915054906101000a900460ff1681565b60008160405160200161157a91906127ea565b604051602081830303815290604052805190602001209050919050565b60006115a286611567565b905060006115af82611d16565b905060006115bf82878787611c2d565b905086886040516020016115d391906127ea565b6040516020818303038152906040528051906020012014611629576040517f08c379a00000000000000000000000000000000000000000000000000000000081526004016116209061284d565b60405180910390fd5b3373ffffffffffffffffffffffffffffffffffffffff168173ffffffffffffffffffffffffffffffffffffffff1614611697576040517f08c379a000000000000000000000000000000000000000000000000000000000815260040161168e906128b9565b60405180910390fd5b600260009054906101000a900473ffffffffffffffffffffffffffffffffffffffff1673ffffffffffffffffffffffffffffffffffffffff163373ffffffffffffffffffffffffffffffffffffffff160361185d5761172b886040518060400160405280600181526020017f2300000000000000000000000000000000000000000000000000000000000000815250610359565b6004600c60405161173c91906129d9565b908152602001604051809103902060009054906101000a900460ff1615611798576040517f08c379a000000000000000000000000000000000000000000000000000000000815260040161178f90612a3c565b60405180910390fd5b6003889080600181540180825580915050600190039060005260206000200160009091909190915090805190602001906117d3929190611ec1565b5060016004600c6040516117e791906129d9565b908152602001604051809103902060006101000a81548160ff0219169083151502179055506040518060400160405280600181526020017f310000000000000000000000000000000000000000000000000000000000000081525060009080519060200190611857929190611ec1565b50611b91565b600560009054906101000a900473ffffffffffffffffffffffffffffffffffffffff1673ffffffffffffffffffffffffffffffffffffffff163373ffffffffffffffffffffffffffffffffffffffff1603611a23576118f1886040518060400160405280600181526020017f2300000000000000000000000000000000000000000000000000000000000000815250610359565b6007600c60405161190291906129d9565b908152602001604051809103902060009054906101000a900460ff161561195e576040517f08c379a000000000000000000000000000000000000000000000000000000000815260040161195590612a3c565b60405180910390fd5b600688908060018154018082558091505060019003906000526020600020016000909190919091509080519060200190611999929190611ec1565b5060016007600c6040516119ad91906129d9565b908152602001604051809103902060006101000a81548160ff0219169083151502179055506040518060400160405280600181526020017f320000000000000000000000000000000000000000000000000000000000000081525060009080519060200190611a1d929190611ec1565b50611b90565b611a62886040518060400160405280600181526020017f2300000000000000000000000000000000000000000000000000000000000000815250610359565b600a600c604051611a7391906129d9565b908152602001604051809103902060009054906101000a900460ff1615611acf576040517f08c379a0000000000000000000000000000000000000000000000000000000008152600401611ac690612a3c565b60405180910390fd5b600988908060018154018082558091505060019003906000526020600020016000909190919091509080519060200190611b0a929190611ec1565b506001600a600c604051611b1e91906129d9565b908152602001604051809103902060006101000a81548160ff0219169083151502179055506040518060400160405280600181526020017f330000000000000000000000000000000000000000000000000000000000000081525060009080519060200190611b8e929190611ec1565b505b5b5050505050505050565b606060008054611baa906126fc565b80601f0160208091040260200160405190810160405280929190818152602001828054611bd6906126fc565b8015611c235780601f10611bf857610100808354040283529160200191611c23565b820191906000526020600020905b815481529060010190602001808311611c0657829003601f168201915b5050505050905090565b600060018585858560405160008152602001604052604051611c529493929190612a6b565b6020604051602081039080840390855afa158015611c74573d6000803e3d6000fd5b505050602060405103519050949350505050565b60008054611c95906126fc565b80601f0160208091040260200160405190810160405280929190818152602001828054611cc1906126fc565b8015611d0e5780601f10611ce357610100808354040283529160200191611d0e565b820191906000526020600020905b815481529060010190602001808311611cf157829003601f168201915b505050505081565b600081604051602001611d299190612b1d565b604051602081830303815290604052805190602001209050919050565b828054611d52906126fc565b90600052602060002090601f016020900481019282611d745760008555611dc2565b82601f10611d855780548555611dc2565b82800160010185558215611dc257600052602060002091601f016020900482015b82811115611dc1578254825591600101919060010190611da6565b5b509050611dcf9190611f47565b5090565b828054611ddf906126fc565b90600052602060002090601f016020900481019282611e015760008555611e48565b82601f10611e1a57805160ff1916838001178555611e48565b82800160010185558215611e48579182015b82811115611e47578251825591602001919060010190611e2c565b5b509050611e559190611f47565b5090565b828054828255906000526020600020908101928215611eb05760005260206000209182015b82811115611eaf578282908054611e94906126fc565b611e9f929190611f64565b5091600101919060010190611e7e565b5b509050611ebd9190611ff1565b5090565b828054611ecd906126fc565b90600052602060002090601f016020900481019282611eef5760008555611f36565b82601f10611f0857805160ff1916838001178555611f36565b82800160010185558215611f36579182015b82811115611f35578251825591602001919060010190611f1a565b5b509050611f439190611f47565b5090565b5b80821115611f60576000816000905550600101611f48565b5090565b828054611f70906126fc565b90600052602060002090601f016020900481019282611f925760008555611fe0565b82601f10611fa35780548555611fe0565b82800160010185558215611fe057600052602060002091601f016020900482015b82811115611fdf578254825591600101919060010190611fc4565b5b509050611fed9190611f47565b5090565b5b8082111561201157600081816120089190612015565b50600101611ff2565b5090565b508054612021906126fc565b6000825580601f106120335750612052565b601f0160209004906000526020600020908101906120519190611f47565b5b50565b6000604051905090565b600080fd5b600080fd5b600080fd5b600080fd5b6000601f19601f8301169050919050565b7f4e487b7100000000000000000000000000000000000000000000000000000000600052604160045260246000fd5b6120bc82612073565b810181811067ffffffffffffffff821117156120db576120da612084565b5b80604052505050565b60006120ee612055565b90506120fa82826120b3565b919050565b600067ffffffffffffffff82111561211a57612119612084565b5b61212382612073565b9050602081019050919050565b82818337600083830152505050565b600061215261214d846120ff565b6120e4565b90508281526020810184848401111561216e5761216d61206e565b5b612179848285612130565b509392505050565b600082601f83011261219657612195612069565b5b81356121a684826020860161213f565b91505092915050565b600080604083850312156121c6576121c561205f565b5b600083013567ffffffffffffffff8111156121e4576121e3612064565b5b6121f085828601612181565b925050602083013567ffffffffffffffff81111561221157612210612064565b5b61221d85828601612181565b9150509250929050565b6000819050919050565b61223a81612227565b811461224557600080fd5b50565b60008135905061225781612231565b92915050565b600060ff82169050919050565b6122738161225d565b811461227e57600080fd5b50565b6000813590506122908161226a565b92915050565b600080600080600060a086880312156122b2576122b161205f565b5b600086013567ffffffffffffffff8111156122d0576122cf612064565b5b6122dc88828901612181565b95505060206122ed88828901612248565b94505060406122fe88828901612281565b935050606061230f88828901612248565b925050608061232088828901612248565b9150509295509295909350565b600081519050919050565b600082825260208201905092915050565b60005b8381101561236757808201518184015260208101905061234c565b83811115612376576000848401525b50505050565b60006123878261232d565b6123918185612338565b93506123a1818560208601612349565b6123aa81612073565b840191505092915050565b600060208201905081810360008301526123cf818461237c565b905092915050565b6000602082840312156123ed576123ec61205f565b5b600082013567ffffffffffffffff81111561240b5761240a612064565b5b61241784828501612181565b91505092915050565b60008115159050919050565b61243581612420565b82525050565b6000602082019050612450600083018461242c565b92915050565b600081519050919050565b600082825260208201905092915050565b6000819050602082019050919050565b600082825260208201905092915050565b600061249e8261232d565b6124a88185612482565b93506124b8818560208601612349565b6124c181612073565b840191505092915050565b60006124d88383612493565b905092915050565b6000602082019050919050565b60006124f882612456565b6125028185612461565b93508360208202850161251485612472565b8060005b85811015612550578484038952815161253185826124cc565b945061253c836124e0565b925060208a01995050600181019050612518565b50829750879550505050505092915050565b6000602082019050818103600083015261257c81846124ed565b905092915050565b61258d81612227565b82525050565b60006020820190506125a86000830184612584565b92915050565b600080600080608085870312156125c8576125c761205f565b5b60006125d687828801612248565b94505060206125e787828801612281565b93505060406125f887828801612248565b925050606061260987828801612248565b91505092959194509250565b600073ffffffffffffffffffffffffffffffffffffffff82169050919050565b600061264082612615565b9050919050565b61265081612635565b82525050565b600060208201905061266b6000830184612647565b92915050565b6000602082840312156126875761268661205f565b5b600061269584828501612248565b91505092915050565b7f4e487b7100000000000000000000000000000000000000000000000000000000600052603260045260246000fd5b7f4e487b7100000000000000000000000000000000000000000000000000000000600052602260045260246000fd5b6000600282049050600182168061271457607f821691505b602082108103612727576127266126cd565b5b50919050565b7f4e487b7100000000000000000000000000000000000000000000000000000000600052601160045260246000fd5b6000819050919050565b60006127718261275c565b91507fffffffffffffffffffffffffffffffffffffffffffffffffffffffffffffffff82036127a3576127a261272d565b5b600182019050919050565b600081905092915050565b60006127c48261232d565b6127ce81856127ae565b93506127de818560208601612349565b80840191505092915050565b60006127f682846127b9565b915081905092915050565b7f6d65737361676520686173206265656e20616c74657264000000000000000000600082015250565b6000612837601783612338565b915061284282612801565b602082019050919050565b600060208201905081810360008301526128668161282a565b9050919050565b7f6164647265737320646f6e74206d617463680000000000000000000000000000600082015250565b60006128a3601283612338565b91506128ae8261286d565b602082019050919050565b600060208201905081810360008301526128d281612896565b9050919050565b7f70617469656e7420646f6573206e6f7420657869737400000000000000000000600082015250565b600061290f601683612338565b915061291a826128d9565b602082019050919050565b6000602082019050818103600083015261293e81612902565b9050919050565b60008190508160005260206000209050919050565b60008154612967816126fc565b61297181866127ae565b9450600182166000811461298c576001811461299d576129d0565b60ff198316865281860193506129d0565b6129a685612945565b60005b838110156129c8578154818901526001820191506020810190506129a9565b838801955050505b50505092915050565b60006129e5828461295a565b915081905092915050565b7f70617469656e7420616c72656164792065786973740000000000000000000000600082015250565b6000612a26601583612338565b9150612a31826129f0565b602082019050919050565b60006020820190508181036000830152612a5581612a19565b9050919050565b612a658161225d565b82525050565b6000608082019050612a806000830187612584565b612a8d6020830186612a5c565b612a9a6040830185612584565b612aa76060830184612584565b95945050505050565b7f19457468657265756d205369676e6564204d6573736167653a0a333200000000600082015250565b6000612ae6601c836127ae565b9150612af182612ab0565b601c82019050919050565b6000819050919050565b612b17612b1282612227565b612afc565b82525050565b6000612b2882612ad9565b9150612b348284612b06565b6020820191508190509291505056fea264697066735822122057cb70345ee8b7099ad27d060db563d60e3e15198c9e9d16ff7142d5bdde745764736f6c634300080e0033",
  "immutableReferences": {},
  "source": "pragma solidity >=0.4.22 <0.9.0;\r\ncontract Greeter{\r\n\r\n    string public greeting;\r\n\r\n\r\n    string[] in_clinic_records;\r\n    //clinic1 address, clinic1 registered_patients, clinic1 records\r\n    address clinic1_address;\r\n    string[] clinic1_records;\r\n    mapping(string => bool) public clini1_patients;\r\n\r\n\r\n    //clinic2 address, clinic2 registered_patients, clinic2 records\r\n    address clinic2_address;\r\n    string[] clinic2_records;\r\n    mapping(string => bool) public clini2_patients;\r\n\r\n\r\n    //clinic3 address, clinic3 registered_patients, clinic3 records\r\n    address clinic3_address;\r\n    string[] clinic3_records;\r\n    mapping(string => bool) public clini3_patients;\r\n\r\n\r\n    // used for splitting a string\r\n    bytes tempNum;\r\n    string id;\r\n    // ------------------------\r\n\r\n        constructor() public {\r\n             greeting = 'Hello';\r\n             clinic1_address = 0xA18701FcEfcB34548e3F1168018072acFceD24A3;\r\n             clinic2_address = 0x76d4fCF227AF4A6464F093566eD980Dfe7227CB8;\r\n             clinic3_address = 0x042607F7A3CeD2E6014D0B23E869EDD5471a54bc;\r\n         }\r\n\r\n        function add_patient(string memory _message, bytes32 hashed_message, uint8 v, bytes32 r, bytes32 s) public {\r\n\r\n            bytes32 messageHash = getMessageHash(_message);\r\n            bytes32 ethSignedMessageHash = getEthSignedMessageHash(messageHash);\r\n            address retrived_address = ret_add(ethSignedMessageHash, v, r, s);\r\n\r\n            // making sure that the message was not manipulated\r\n            require(keccak256(abi.encodePacked(_message)) == hashed_message, 'message has been alterd');\r\n            // making sure that the sender correspond to the address\r\n            require(retrived_address == msg.sender, 'address dont match');\r\n            if(msg.sender == clinic1_address) {   \r\n\r\n                // fetch the patient id\r\n                splitStr(_message, '#');\r\n                // make sure that this patient is not registered\r\n                require(!clini1_patients[id], 'patient already exist');\r\n                //add the patient record to the clinic records\r\n                clinic1_records.push(_message);\r\n                // patient added\r\n                clini1_patients[id] = true;\r\n                greeting = '1';\r\n\r\n            } else if(msg.sender == clinic2_address){\r\n\r\n                // fetch the patient id\r\n                splitStr(_message, '#');\r\n                // make sure that this patient is not registered\r\n                require(!clini2_patients[id], 'patient already exist');\r\n                //add the patient record to the clinic records\r\n                clinic2_records.push(_message);\r\n                // patient added\r\n                clini2_patients[id] = true;\r\n                greeting = '2';\r\n\r\n            } else {\r\n                // fetch the patient id\r\n                splitStr(_message, '#');\r\n                // make sure that this patient is not registered\r\n                require(!clini3_patients[id], 'patient already exist');\r\n                //add the patient record to the clinic records\r\n                clinic3_records.push(_message);\r\n                // patient added\r\n                clini3_patients[id] = true;\r\n                greeting = '3';\r\n            }       \r\n                \r\n        }\r\n\r\n        function add_reg_visit(string memory _message, bytes32 hashed_message, uint8 v, bytes32 r, bytes32 s) public {\r\n\r\n            bytes32 messageHash = getMessageHash(_message);\r\n            bytes32 ethSignedMessageHash = getEthSignedMessageHash(messageHash);\r\n            address retrived_address = ret_add(ethSignedMessageHash, v, r, s);\r\n\r\n            // making sure that the message was not manipulated\r\n            require(keccak256(abi.encodePacked(_message)) == hashed_message, 'message has been alterd');\r\n            // making sure that the sender correspond to the address\r\n            require(retrived_address == msg.sender, 'address dont match');\r\n            \r\n            if(msg.sender == clinic1_address) {   \r\n\r\n                // fetch the patient id\r\n                splitStr(_message, '#');\r\n                // make sure that this patient is registered\r\n                require(clini1_patients[id], 'patient does not exist');\r\n                //add the patient record to the clinic records\r\n                clinic1_records.push(_message);\r\n                \r\n                greeting = '2-1';\r\n\r\n            } else if(msg.sender == clinic2_address){\r\n\r\n                // fetch the patient id\r\n                splitStr(_message, '#');\r\n                // make sure that this patient is not registered\r\n                require(clini2_patients[id], 'patient does not exist');\r\n                //add the patient record to the clinic records\r\n                clinic2_records.push(_message);\r\n                \r\n                greeting = '2-2';\r\n\r\n            } else {\r\n                // fetch the patient id\r\n                splitStr(_message, '#');\r\n                // make sure that this patient is not registered\r\n                require(clini3_patients[id], 'patient does not exist');\r\n                //add the patient record to the clinic records\r\n                clinic3_records.push(_message);\r\n                \r\n                greeting = '2-3';\r\n            }       \r\n            \r\n        }\r\n\r\n        function add_lab_visit(string memory _message, bytes32 hashed_message, uint8 v, bytes32 r, bytes32 s) public {\r\n\r\n            bytes32 messageHash = getMessageHash(_message);\r\n            bytes32 ethSignedMessageHash = getEthSignedMessageHash(messageHash);\r\n            address retrived_address = ret_add(ethSignedMessageHash, v, r, s);\r\n\r\n            // making sure that the message was not manipulated\r\n            require(keccak256(abi.encodePacked(_message)) == hashed_message, 'message has been alterd');\r\n            // making sure that the sender correspond to the address\r\n            require(retrived_address == msg.sender, 'address dont match');\r\n\r\n            if(msg.sender == clinic1_address) {   \r\n\r\n                // fetch the patient id\r\n                splitStr(_message, '#');\r\n                // make sure that this patient is registered\r\n                require(clini1_patients[id], 'patient does not exist');\r\n                //add the patient record to the clinic records\r\n                clinic1_records.push(_message);\r\n                \r\n                greeting = '3-1';\r\n\r\n            } else if(msg.sender == clinic2_address){\r\n\r\n                // fetch the patient id\r\n                splitStr(_message, '#');\r\n                // make sure that this patient is not registered\r\n                require(clini2_patients[id], 'patient does not exist');\r\n                //add the patient record to the clinic records\r\n                clinic2_records.push(_message);\r\n                \r\n                greeting = '3-2';\r\n\r\n            } else {\r\n                // fetch the patient id\r\n                splitStr(_message, '#');\r\n                // make sure that this patient is not registered\r\n                require(clini3_patients[id], 'patient does not exist');\r\n                //add the patient record to the clinic records\r\n                clinic3_records.push(_message);\r\n                \r\n                greeting = '3-3';\r\n            }       \r\n            \r\n        }\r\n\r\n        function define_records(string memory _message, bytes32 hashed_message, uint8 v, bytes32 r, bytes32 s) public{\r\n\r\n            bytes32 messageHash = getMessageHash(_message);\r\n            bytes32 ethSignedMessageHash = getEthSignedMessageHash(messageHash);\r\n            address retrived_address = ret_add(ethSignedMessageHash, v, r, s);\r\n\r\n            // making sure that the message was not manipulated\r\n            require(keccak256(abi.encodePacked(_message)) == hashed_message, 'message has been alterd');\r\n            // making sure that the sender correspond to the address\r\n            require(retrived_address == msg.sender, 'address dont match');\r\n\r\n            if(msg.sender == clinic1_address) {  \r\n\r\n                require(clini1_patients[_message], 'patient does not exist');\r\n                in_clinic_records = clinic1_records;\r\n\r\n            } else if(msg.sender == clinic2_address){\r\n\r\n                require(clini2_patients[_message], 'patient does not exist');\r\n                in_clinic_records = clinic2_records;\r\n\r\n            } else {\r\n                require(clini3_patients[_message], 'patient does not exist');\r\n                in_clinic_records = clinic3_records;\r\n            }       \r\n            \r\n        }\r\n\r\n        function retrive_records() public returns (string[] memory)\r\n        {\r\n            return in_clinic_records;\r\n        }\r\n\r\n        //////////////////////////////////////////// helpers ////////////////////////////////////////////////\r\n        function ret_add(bytes32 _ethSignedMessageHash, uint8 v, bytes32 r, bytes32 s) public returns(address)\r\n        {\r\n            return ecrecover(_ethSignedMessageHash, v, r, s);\r\n        }\r\n\r\n\r\n        function greet() view public returns (string memory) {\r\n             return greeting;\r\n        }\r\n\r\n\r\n        function check1() view public returns (string memory ) {\r\n             return clinic1_records[0];\r\n        }\r\n\r\n        function check2(string memory _message) view public returns (bool) {\r\n             return clini1_patients[_message];\r\n        }\r\n\r\n        function getMessageHash(\r\n                string memory _message\r\n            ) public pure returns (bytes32) {\r\n                return keccak256(abi.encodePacked(_message));\r\n            }\r\n\r\n        function getEthSignedMessageHash(bytes32 _messageHash)\r\n            public\r\n            pure\r\n            returns (bytes32)\r\n        {\r\n            return\r\n                keccak256(\r\n                    abi.encodePacked(\"\\x19Ethereum Signed Message:\\n32\", _messageHash)\r\n                );\r\n        }\r\n\r\n        \r\n        function splitStr(string memory str, string memory delimiter) public { //delimiter can be any character that separates the integers \r\n\r\n        bytes memory b = bytes(str); //cast the string to bytes to iterate\r\n        bytes memory delm = bytes(delimiter);\r\n        \r\n        for(uint i; i<b.length ; i++){          \r\n\r\n            if(b[i] != delm[0]) { //check if a not space\r\n                tempNum.push(b[i]);             \r\n            }\r\n            else { \r\n                id = string(tempNum);\r\n                tempNum = \"\";   //reset the tempNum to catch the net number        \r\n                return;         \r\n            }                \r\n        }\r\n        }\r\n}",
  "sourcePath": "C:\\Users\\mo7amad mo3taz\\Desktop\\security project\\python_edition\\pythonDapp\\contracts\\Greeter.sol",
  "compiler": {
    "name": "solc",
    "version": "0.8.14+commit.80d49f37.Emscripten.clang"
  },
  "schemaVersion": "3.4.7",
  "updatedAt": "2022-06-06T19:44:19.088Z",
  "devdoc": {
    "kind": "dev",
    "methods": {},
    "version": 1
  },
  "userdoc": {
    "kind": "user",
    "methods": {},
    "version": 1
  }
}