{
  "contractName": "Greeter",
  "abi": [
    {
      "inputs": [],
      "stateMutability": "nonpayable",
      "type": "constructor"
    },
    {
      "inputs": [
        {
          "internalType": "string",
          "name": "",
          "type": "string"
        }
      ],
      "name": "clini1_patients",
      "outputs": [
        {
          "internalType": "bool",
          "name": "",
          "type": "bool"
        }
      ],
      "stateMutability": "view",
      "type": "function"
    },
    {
      "inputs": [
        {
          "internalType": "string",
          "name": "",
          "type": "string"
        }
      ],
      "name": "clini2_patients",
      "outputs": [
        {
          "internalType": "bool",
          "name": "",
          "type": "bool"
        }
      ],
      "stateMutability": "view",
      "type": "function"
    },
    {
      "inputs": [
        {
          "internalType": "string",
          "name": "",
          "type": "string"
        }
      ],
      "name": "clini3_patients",
      "outputs": [
        {
          "internalType": "bool",
          "name": "",
          "type": "bool"
        }
      ],
      "stateMutability": "view",
      "type": "function"
    },
    {
      "inputs": [],
      "name": "greeting",
      "outputs": [
        {
          "internalType": "string",
          "name": "",
          "type": "string"
        }
      ],
      "stateMutability": "view",
      "type": "function"
    },
    {
      "inputs": [
        {
          "internalType": "string",
          "name": "_message",
          "type": "string"
        },
        {
          "internalType": "uint8",
          "name": "v",
          "type": "uint8"
        },
        {
          "internalType": "bytes32",
          "name": "r",
          "type": "bytes32"
        },
        {
          "internalType": "bytes32",
          "name": "s",
          "type": "bytes32"
        }
      ],
      "name": "add_patient",
      "outputs": [],
      "stateMutability": "nonpayable",
      "type": "function"
    },
    {
      "inputs": [
        {
          "internalType": "string",
          "name": "_message",
          "type": "string"
        },
        {
          "internalType": "uint8",
          "name": "v",
          "type": "uint8"
        },
        {
          "internalType": "bytes32",
          "name": "r",
          "type": "bytes32"
        },
        {
          "internalType": "bytes32",
          "name": "s",
          "type": "bytes32"
        }
      ],
      "name": "add_reg_visit",
      "outputs": [],
      "stateMutability": "nonpayable",
      "type": "function"
    },
    {
      "inputs": [
        {
          "internalType": "string",
          "name": "_message",
          "type": "string"
        },
        {
          "internalType": "uint8",
          "name": "v",
          "type": "uint8"
        },
        {
          "internalType": "bytes32",
          "name": "r",
          "type": "bytes32"
        },
        {
          "internalType": "bytes32",
          "name": "s",
          "type": "bytes32"
        }
      ],
      "name": "add_lab_visit",
      "outputs": [],
      "stateMutability": "nonpayable",
      "type": "function"
    },
    {
      "inputs": [
        {
          "internalType": "string",
          "name": "_message",
          "type": "string"
        },
        {
          "internalType": "uint8",
          "name": "v",
          "type": "uint8"
        },
        {
          "internalType": "bytes32",
          "name": "r",
          "type": "bytes32"
        },
        {
          "internalType": "bytes32",
          "name": "s",
          "type": "bytes32"
        }
      ],
      "name": "define_records",
      "outputs": [],
      "stateMutability": "nonpayable",
      "type": "function"
    },
    {
      "inputs": [],
      "name": "retrive_records",
      "outputs": [
        {
          "internalType": "string[]",
          "name": "",
          "type": "string[]"
        }
      ],
      "stateMutability": "nonpayable",
      "type": "function"
    },
    {
      "inputs": [],
      "name": "retrive_records1",
      "outputs": [
        {
          "internalType": "string[]",
          "name": "",
          "type": "string[]"
        }
      ],
      "stateMutability": "nonpayable",
      "type": "function"
    },
    {
      "inputs": [],
      "name": "retrive_records2",
      "outputs": [
        {
          "internalType": "string[]",
          "name": "",
          "type": "string[]"
        }
      ],
      "stateMutability": "nonpayable",
      "type": "function"
    },
    {
      "inputs": [],
      "name": "retrive_records3",
      "outputs": [
        {
          "internalType": "string[]",
          "name": "",
          "type": "string[]"
        }
      ],
      "stateMutability": "nonpayable",
      "type": "function"
    },
    {
      "inputs": [
        {
          "internalType": "bytes32",
          "name": "_ethSignedMessageHash",
          "type": "bytes32"
        },
        {
          "internalType": "uint8",
          "name": "v",
          "type": "uint8"
        },
        {
          "internalType": "bytes32",
          "name": "r",
          "type": "bytes32"
        },
        {
          "internalType": "bytes32",
          "name": "s",
          "type": "bytes32"
        }
      ],
      "name": "ret_add",
      "outputs": [
        {
          "internalType": "address",
          "name": "",
          "type": "address"
        }
      ],
      "stateMutability": "nonpayable",
      "type": "function"
    },
    {
      "inputs": [],
      "name": "greet",
      "outputs": [
        {
          "internalType": "string",
          "name": "",
          "type": "string"
        }
      ],
      "stateMutability": "view",
      "type": "function"
    },
    {
      "inputs": [],
      "name": "check1",
      "outputs": [
        {
          "internalType": "string",
          "name": "",
          "type": "string"
        }
      ],
      "stateMutability": "view",
      "type": "function"
    },
    {
      "inputs": [
        {
          "internalType": "string",
          "name": "_message",
          "type": "string"
        }
      ],
      "name": "check2",
      "outputs": [
        {
          "internalType": "bool",
          "name": "",
          "type": "bool"
        }
      ],
      "stateMutability": "view",
      "type": "function"
    },
    {
      "inputs": [
        {
          "internalType": "string",
          "name": "_message",
          "type": "string"
        }
      ],
      "name": "getMessageHash",
      "outputs": [
        {
          "internalType": "bytes32",
          "name": "",
          "type": "bytes32"
        }
      ],
      "stateMutability": "pure",
      "type": "function"
    },
    {
      "inputs": [
        {
          "internalType": "bytes32",
          "name": "_messageHash",
          "type": "bytes32"
        }
      ],
      "name": "getEthSignedMessageHash",
      "outputs": [
        {
          "internalType": "bytes32",
          "name": "",
          "type": "bytes32"
        }
      ],
      "stateMutability": "pure",
      "type": "function"
    },
    {
      "inputs": [
        {
          "internalType": "string",
          "name": "str",
          "type": "string"
        },
        {
          "internalType": "string",
          "name": "delimiter",
          "type": "string"
        }
      ],
      "name": "splitStr",
      "outputs": [],
      "stateMutability": "nonpayable",
      "type": "function"
    }
  ],
  "bytecode": "0x60806040523480156200001157600080fd5b506040518060400160405280600581526020017f48656c6c6f000000000000000000000000000000000000000000000000000000815250600090805190602001906200005f92919062000165565b5073b00b6600f7ff04dffc91be88342e17c220fc9e5a600260006101000a81548173ffffffffffffffffffffffffffffffffffffffff021916908373ffffffffffffffffffffffffffffffffffffffff16021790555073cc6441c647fb77d1686f3528aff788e39201d283600560006101000a81548173ffffffffffffffffffffffffffffffffffffffff021916908373ffffffffffffffffffffffffffffffffffffffff16021790555073bccd9d91b8d9ff6d5be20b7cdcbf36e0be1feceb600860006101000a81548173ffffffffffffffffffffffffffffffffffffffff021916908373ffffffffffffffffffffffffffffffffffffffff16021790555062000279565b828054620001739062000244565b90600052602060002090601f016020900481019282620001975760008555620001e3565b82601f10620001b257805160ff1916838001178555620001e3565b82800160010185558215620001e3579182015b82811115620001e2578251825591602001919060010190620001c5565b5b509050620001f29190620001f6565b5090565b5b8082111562000211576000816000905550600101620001f7565b5090565b7f4e487b7100000000000000000000000000000000000000000000000000000000600052602260045260246000fd5b600060028204905060018216806200025d57607f821691505b60208210810362000273576200027262000215565b5b50919050565b612d7f80620002896000396000f3fe608060405234801561001057600080fd5b50600436106101215760003560e01c806389083ecb116100ad578063cfae321711610071578063cfae32171461031a578063d6e1a30214610338578063ded3182614610368578063ef690cc014610386578063fa540801146103a457610121565b806389083ecb146102645780639d1a915514610280578063b446f3b2146102b0578063bc071dab146102e0578063cab6edd1146102fe57610121565b806328f49bce116100f457806328f49bce146101ac5780634100ca18146101ca5780634360fe91146101e6578063736fc6b214610204578063782b6e491461023457610121565b806312b0b6271461012657806314adc386146101425780631b5e8b931461015e57806323300e501461017c575b600080fd5b610140600480360381019061013b9190612311565b6103d4565b005b61015c600480360381019061015791906123f8565b610597565b005b610166610b32565b6040516101739190612503565b60405180910390f35b61019660048036038101906101919190612525565b610be1565b6040516101a39190612589565b60405180910390f35b6101b4610c16565b6040516101c191906126b0565b60405180910390f35b6101e460048036038101906101df91906123f8565b610cef565b005b6101ee6111df565b6040516101fb91906126b0565b60405180910390f35b61021e60048036038101906102199190612525565b6112b8565b60405161022b9190612589565b60405180910390f35b61024e60048036038101906102499190612525565b6112ee565b60405161025b9190612589565b60405180910390f35b61027e600480360381019061027991906123f8565b611324565b005b61029a60048036038101906102959190612525565b6115f5565b6040516102a79190612589565b60405180910390f35b6102ca60048036038101906102c59190612525565b61162b565b6040516102d791906126e1565b60405180910390f35b6102e861165b565b6040516102f591906126b0565b60405180910390f35b610318600480360381019061031391906123f8565b611734565b005b610322611c24565b60405161032f9190612503565b60405180910390f35b610352600480360381019061034d91906126fc565b611cb6565b60405161035f91906127a4565b60405180910390f35b610370611d11565b60405161037d91906126b0565b60405180910390f35b61038e611dea565b60405161039b9190612503565b60405180910390f35b6103be60048036038101906103b991906127bf565b611e78565b6040516103cb91906126e1565b60405180910390f35b6000829050600082905060005b825181101561058f57816000815181106103fe576103fd6127ec565b5b602001015160f81c60f81b7effffffffffffffffffffffffffffffffffffffffffffffffffffffffffffff191683828151811061043e5761043d6127ec565b5b602001015160f81c60f81b7effffffffffffffffffffffffffffffffffffffffffffffffffffffffffffff19161461053257600b838281518110610485576104846127ec565b5b602001015160f81c60f81b908080548061049e9061284a565b80601f81036104bd5783600052602060002060ff1984168155603f9350505b506002820183556001810192505050600190038154600116156104ef5790600052602060002090602091828204019190065b909190919091601f036101000a81548160ff021916907f01000000000000000000000000000000000000000000000000000000000000008404021790555061057c565b600b600c9080546105429061284a565b61054d929190611ea8565b5060405180602001604052806000815250600b9080519060200190610573929190611f35565b50505050610593565b8080610587906128b4565b9150506103e1565b5050505b5050565b60006105a28561162b565b905060006105af82611e78565b905060006105bf82878787611cb6565b90503373ffffffffffffffffffffffffffffffffffffffff168173ffffffffffffffffffffffffffffffffffffffff161461062f576040517f08c379a00000000000000000000000000000000000000000000000000000000081526004016106269061296e565b60405180910390fd5b600260009054906101000a900473ffffffffffffffffffffffffffffffffffffffff1673ffffffffffffffffffffffffffffffffffffffff163373ffffffffffffffffffffffffffffffffffffffff16036107f5576106c3876040518060400160405280600181526020017f23000000000000000000000000000000000000000000000000000000000000008152506103d4565b6004600c6040516106d49190612a2d565b908152602001604051809103902060009054906101000a900460ff1615610730576040517f08c379a000000000000000000000000000000000000000000000000000000000815260040161072790612a90565b60405180910390fd5b60038790806001815401808255809150506001900390600052602060002001600090919091909150908051906020019061076b929190611fbb565b5060016004600c60405161077f9190612a2d565b908152602001604051809103902060006101000a81548160ff0219169083151502179055506040518060400160405280600181526020017f3100000000000000000000000000000000000000000000000000000000000000815250600090805190602001906107ef929190611fbb565b50610b29565b600560009054906101000a900473ffffffffffffffffffffffffffffffffffffffff1673ffffffffffffffffffffffffffffffffffffffff163373ffffffffffffffffffffffffffffffffffffffff16036109bb57610889876040518060400160405280600181526020017f23000000000000000000000000000000000000000000000000000000000000008152506103d4565b6007600c60405161089a9190612a2d565b908152602001604051809103902060009054906101000a900460ff16156108f6576040517f08c379a00000000000000000000000000000000000000000000000000000000081526004016108ed90612a90565b60405180910390fd5b600687908060018154018082558091505060019003906000526020600020016000909190919091509080519060200190610931929190611fbb565b5060016007600c6040516109459190612a2d565b908152602001604051809103902060006101000a81548160ff0219169083151502179055506040518060400160405280600181526020017f3200000000000000000000000000000000000000000000000000000000000000815250600090805190602001906109b5929190611fbb565b50610b28565b6109fa876040518060400160405280600181526020017f23000000000000000000000000000000000000000000000000000000000000008152506103d4565b600a600c604051610a0b9190612a2d565b908152602001604051809103902060009054906101000a900460ff1615610a67576040517f08c379a0000000000000000000000000000000000000000000000000000000008152600401610a5e90612a90565b60405180910390fd5b600987908060018154018082558091505060019003906000526020600020016000909190919091509080519060200190610aa2929190611fbb565b506001600a600c604051610ab69190612a2d565b908152602001604051809103902060006101000a81548160ff0219169083151502179055506040518060400160405280600181526020017f330000000000000000000000000000000000000000000000000000000000000081525060009080519060200190610b26929190611fbb565b505b5b50505050505050565b60606003600081548110610b4957610b486127ec565b5b906000526020600020018054610b5e9061284a565b80601f0160208091040260200160405190810160405280929190818152602001828054610b8a9061284a565b8015610bd75780601f10610bac57610100808354040283529160200191610bd7565b820191906000526020600020905b815481529060010190602001808311610bba57829003601f168201915b5050505050905090565b6000600482604051610bf39190612ae1565b908152602001604051809103902060009054906101000a900460ff169050919050565b60606003805480602002602001604051908101604052809291908181526020016000905b82821015610ce6578382906000526020600020018054610c599061284a565b80601f0160208091040260200160405190810160405280929190818152602001828054610c859061284a565b8015610cd25780601f10610ca757610100808354040283529160200191610cd2565b820191906000526020600020905b815481529060010190602001808311610cb557829003601f168201915b505050505081526020019060010190610c3a565b50505050905090565b6000610cfa8561162b565b90506000610d0782611e78565b90506000610d1782878787611cb6565b90503373ffffffffffffffffffffffffffffffffffffffff168173ffffffffffffffffffffffffffffffffffffffff1614610d87576040517f08c379a0000000000000000000000000000000000000000000000000000000008152600401610d7e90612b6a565b60405180910390fd5b600260009054906101000a900473ffffffffffffffffffffffffffffffffffffffff1673ffffffffffffffffffffffffffffffffffffffff163373ffffffffffffffffffffffffffffffffffffffff1603610f1457610e1b876040518060400160405280600181526020017f23000000000000000000000000000000000000000000000000000000000000008152506103d4565b6004600c604051610e2c9190612a2d565b908152602001604051809103902060009054906101000a900460ff16610e87576040517f08c379a0000000000000000000000000000000000000000000000000000000008152600401610e7e90612bd6565b60405180910390fd5b600387908060018154018082558091505060019003906000526020600020016000909190919091509080519060200190610ec2929190611fbb565b506040518060400160405280600381526020017f332d31000000000000000000000000000000000000000000000000000000000081525060009080519060200190610f0e929190611fbb565b506111d6565b600560009054906101000a900473ffffffffffffffffffffffffffffffffffffffff1673ffffffffffffffffffffffffffffffffffffffff163373ffffffffffffffffffffffffffffffffffffffff16036110a157610fa8876040518060400160405280600181526020017f23000000000000000000000000000000000000000000000000000000000000008152506103d4565b6007600c604051610fb99190612a2d565b908152602001604051809103902060009054906101000a900460ff16611014576040517f08c379a000000000000000000000000000000000000000000000000000000000815260040161100b90612bd6565b60405180910390fd5b60068790806001815401808255809150506001900390600052602060002001600090919091909150908051906020019061104f929190611fbb565b506040518060400160405280600381526020017f332d3200000000000000000000000000000000000000000000000000000000008152506000908051906020019061109b929190611fbb565b506111d5565b6110e0876040518060400160405280600181526020017f23000000000000000000000000000000000000000000000000000000000000008152506103d4565b600a600c6040516110f19190612a2d565b908152602001604051809103902060009054906101000a900460ff1661114c576040517f08c379a000000000000000000000000000000000000000000000000000000000815260040161114390612bd6565b60405180910390fd5b600987908060018154018082558091505060019003906000526020600020016000909190919091509080519060200190611187929190611fbb565b506040518060400160405280600381526020017f332d330000000000000000000000000000000000000000000000000000000000815250600090805190602001906111d3929190611fbb565b505b5b50505050505050565b60606001805480602002602001604051908101604052809291908181526020016000905b828210156112af5783829060005260206000200180546112229061284a565b80601f016020809104026020016040519081016040528092919081815260200182805461124e9061284a565b801561129b5780601f106112705761010080835404028352916020019161129b565b820191906000526020600020905b81548152906001019060200180831161127e57829003601f168201915b505050505081526020019060010190611203565b50505050905090565b6007818051602081018201805184825260208301602085012081835280955050505050506000915054906101000a900460ff1681565b6004818051602081018201805184825260208301602085012081835280955050505050506000915054906101000a900460ff1681565b600061132f8561162b565b9050600061133c82611e78565b9050600061134c82878787611cb6565b90503373ffffffffffffffffffffffffffffffffffffffff168173ffffffffffffffffffffffffffffffffffffffff16146113bc576040517f08c379a00000000000000000000000000000000000000000000000000000000081526004016113b390612c42565b60405180910390fd5b600260009054906101000a900473ffffffffffffffffffffffffffffffffffffffff1673ffffffffffffffffffffffffffffffffffffffff163373ffffffffffffffffffffffffffffffffffffffff1603611494576004876040516114219190612ae1565b908152602001604051809103902060009054906101000a900460ff1661147c576040517f08c379a000000000000000000000000000000000000000000000000000000000815260040161147390612bd6565b60405180910390fd5b6003600190805461148e929190612041565b506115ec565b600560009054906101000a900473ffffffffffffffffffffffffffffffffffffffff1673ffffffffffffffffffffffffffffffffffffffff163373ffffffffffffffffffffffffffffffffffffffff160361156c576007876040516114f99190612ae1565b908152602001604051809103902060009054906101000a900460ff16611554576040517f08c379a000000000000000000000000000000000000000000000000000000000815260040161154b90612bd6565b60405180910390fd5b60066001908054611566929190612041565b506115eb565b600a8760405161157c9190612ae1565b908152602001604051809103902060009054906101000a900460ff166115d7576040517f08c379a00000000000000000000000000000000000000000000000000000000081526004016115ce90612bd6565b60405180910390fd5b600960019080546115e9929190612041565b505b5b50505050505050565b600a818051602081018201805184825260208301602085012081835280955050505050506000915054906101000a900460ff1681565b60008160405160200161163e9190612ae1565b604051602081830303815290604052805190602001209050919050565b60606006805480602002602001604051908101604052809291908181526020016000905b8282101561172b57838290600052602060002001805461169e9061284a565b80601f01602080910402602001604051908101604052809291908181526020018280546116ca9061284a565b80156117175780601f106116ec57610100808354040283529160200191611717565b820191906000526020600020905b8154815290600101906020018083116116fa57829003601f168201915b50505050508152602001906001019061167f565b50505050905090565b600061173f8561162b565b9050600061174c82611e78565b9050600061175c82878787611cb6565b90503373ffffffffffffffffffffffffffffffffffffffff168173ffffffffffffffffffffffffffffffffffffffff16146117cc576040517f08c379a00000000000000000000000000000000000000000000000000000000081526004016117c39061296e565b60405180910390fd5b600260009054906101000a900473ffffffffffffffffffffffffffffffffffffffff1673ffffffffffffffffffffffffffffffffffffffff163373ffffffffffffffffffffffffffffffffffffffff160361195957611860876040518060400160405280600181526020017f23000000000000000000000000000000000000000000000000000000000000008152506103d4565b6004600c6040516118719190612a2d565b908152602001604051809103902060009054906101000a900460ff166118cc576040517f08c379a00000000000000000000000000000000000000000000000000000000081526004016118c390612bd6565b60405180910390fd5b600387908060018154018082558091505060019003906000526020600020016000909190919091509080519060200190611907929190611fbb565b506040518060400160405280600381526020017f322d31000000000000000000000000000000000000000000000000000000000081525060009080519060200190611953929190611fbb565b50611c1b565b600560009054906101000a900473ffffffffffffffffffffffffffffffffffffffff1673ffffffffffffffffffffffffffffffffffffffff163373ffffffffffffffffffffffffffffffffffffffff1603611ae6576119ed876040518060400160405280600181526020017f23000000000000000000000000000000000000000000000000000000000000008152506103d4565b6007600c6040516119fe9190612a2d565b908152602001604051809103902060009054906101000a900460ff16611a59576040517f08c379a0000000000000000000000000000000000000000000000000000000008152600401611a5090612bd6565b60405180910390fd5b600687908060018154018082558091505060019003906000526020600020016000909190919091509080519060200190611a94929190611fbb565b506040518060400160405280600381526020017f322d32000000000000000000000000000000000000000000000000000000000081525060009080519060200190611ae0929190611fbb565b50611c1a565b611b25876040518060400160405280600181526020017f23000000000000000000000000000000000000000000000000000000000000008152506103d4565b600a600c604051611b369190612a2d565b908152602001604051809103902060009054906101000a900460ff16611b91576040517f08c379a0000000000000000000000000000000000000000000000000000000008152600401611b8890612bd6565b60405180910390fd5b600987908060018154018082558091505060019003906000526020600020016000909190919091509080519060200190611bcc929190611fbb565b506040518060400160405280600381526020017f322d33000000000000000000000000000000000000000000000000000000000081525060009080519060200190611c18929190611fbb565b505b5b50505050505050565b606060008054611c339061284a565b80601f0160208091040260200160405190810160405280929190818152602001828054611c5f9061284a565b8015611cac5780601f10611c8157610100808354040283529160200191611cac565b820191906000526020600020905b815481529060010190602001808311611c8f57829003601f168201915b5050505050905090565b600060018585858560405160008152602001604052604051611cdb9493929190612c71565b6020604051602081039080840390855afa158015611cfd573d6000803e3d6000fd5b505050602060405103519050949350505050565b60606009805480602002602001604051908101604052809291908181526020016000905b82821015611de1578382906000526020600020018054611d549061284a565b80601f0160208091040260200160405190810160405280929190818152602001828054611d809061284a565b8015611dcd5780601f10611da257610100808354040283529160200191611dcd565b820191906000526020600020905b815481529060010190602001808311611db057829003601f168201915b505050505081526020019060010190611d35565b50505050905090565b60008054611df79061284a565b80601f0160208091040260200160405190810160405280929190818152602001828054611e239061284a565b8015611e705780601f10611e4557610100808354040283529160200191611e70565b820191906000526020600020905b815481529060010190602001808311611e5357829003601f168201915b505050505081565b600081604051602001611e8b9190612d23565b604051602081830303815290604052805190602001209050919050565b828054611eb49061284a565b90600052602060002090601f016020900481019282611ed65760008555611f24565b82601f10611ee75780548555611f24565b82800160010185558215611f2457600052602060002091601f016020900482015b82811115611f23578254825591600101919060010190611f08565b5b509050611f3191906120a9565b5090565b828054611f419061284a565b90600052602060002090601f016020900481019282611f635760008555611faa565b82601f10611f7c57805160ff1916838001178555611faa565b82800160010185558215611faa579182015b82811115611fa9578251825591602001919060010190611f8e565b5b509050611fb791906120a9565b5090565b828054611fc79061284a565b90600052602060002090601f016020900481019282611fe95760008555612030565b82601f1061200257805160ff1916838001178555612030565b82800160010185558215612030579182015b8281111561202f578251825591602001919060010190612014565b5b50905061203d91906120a9565b5090565b8280548282559060005260206000209081019282156120985760005260206000209182015b8281111561209757828290805461207c9061284a565b6120879291906120c6565b5091600101919060010190612066565b5b5090506120a59190612153565b5090565b5b808211156120c25760008160009055506001016120aa565b5090565b8280546120d29061284a565b90600052602060002090601f0160209004810192826120f45760008555612142565b82601f106121055780548555612142565b8280016001018555821561214257600052602060002091601f016020900482015b82811115612141578254825591600101919060010190612126565b5b50905061214f91906120a9565b5090565b5b80821115612173576000818161216a9190612177565b50600101612154565b5090565b5080546121839061284a565b6000825580601f1061219557506121b4565b601f0160209004906000526020600020908101906121b391906120a9565b5b50565b6000604051905090565b600080fd5b600080fd5b600080fd5b600080fd5b6000601f19601f8301169050919050565b7f4e487b7100000000000000000000000000000000000000000000000000000000600052604160045260246000fd5b61221e826121d5565b810181811067ffffffffffffffff8211171561223d5761223c6121e6565b5b80604052505050565b60006122506121b7565b905061225c8282612215565b919050565b600067ffffffffffffffff82111561227c5761227b6121e6565b5b612285826121d5565b9050602081019050919050565b82818337600083830152505050565b60006122b46122af84612261565b612246565b9050828152602081018484840111156122d0576122cf6121d0565b5b6122db848285612292565b509392505050565b600082601f8301126122f8576122f76121cb565b5b81356123088482602086016122a1565b91505092915050565b60008060408385031215612328576123276121c1565b5b600083013567ffffffffffffffff811115612346576123456121c6565b5b612352858286016122e3565b925050602083013567ffffffffffffffff811115612373576123726121c6565b5b61237f858286016122e3565b9150509250929050565b600060ff82169050919050565b61239f81612389565b81146123aa57600080fd5b50565b6000813590506123bc81612396565b92915050565b6000819050919050565b6123d5816123c2565b81146123e057600080fd5b50565b6000813590506123f2816123cc565b92915050565b60008060008060808587031215612412576124116121c1565b5b600085013567ffffffffffffffff8111156124305761242f6121c6565b5b61243c878288016122e3565b945050602061244d878288016123ad565b935050604061245e878288016123e3565b925050606061246f878288016123e3565b91505092959194509250565b600081519050919050565b600082825260208201905092915050565b60005b838110156124b557808201518184015260208101905061249a565b838111156124c4576000848401525b50505050565b60006124d58261247b565b6124df8185612486565b93506124ef818560208601612497565b6124f8816121d5565b840191505092915050565b6000602082019050818103600083015261251d81846124ca565b905092915050565b60006020828403121561253b5761253a6121c1565b5b600082013567ffffffffffffffff811115612559576125586121c6565b5b612565848285016122e3565b91505092915050565b60008115159050919050565b6125838161256e565b82525050565b600060208201905061259e600083018461257a565b92915050565b600081519050919050565b600082825260208201905092915050565b6000819050602082019050919050565b600082825260208201905092915050565b60006125ec8261247b565b6125f681856125d0565b9350612606818560208601612497565b61260f816121d5565b840191505092915050565b600061262683836125e1565b905092915050565b6000602082019050919050565b6000612646826125a4565b61265081856125af565b935083602082028501612662856125c0565b8060005b8581101561269e578484038952815161267f858261261a565b945061268a8361262e565b925060208a01995050600181019050612666565b50829750879550505050505092915050565b600060208201905081810360008301526126ca818461263b565b905092915050565b6126db816123c2565b82525050565b60006020820190506126f660008301846126d2565b92915050565b60008060008060808587031215612716576127156121c1565b5b6000612724878288016123e3565b9450506020612735878288016123ad565b9350506040612746878288016123e3565b9250506060612757878288016123e3565b91505092959194509250565b600073ffffffffffffffffffffffffffffffffffffffff82169050919050565b600061278e82612763565b9050919050565b61279e81612783565b82525050565b60006020820190506127b96000830184612795565b92915050565b6000602082840312156127d5576127d46121c1565b5b60006127e3848285016123e3565b91505092915050565b7f4e487b7100000000000000000000000000000000000000000000000000000000600052603260045260246000fd5b7f4e487b7100000000000000000000000000000000000000000000000000000000600052602260045260246000fd5b6000600282049050600182168061286257607f821691505b6020821081036128755761287461281b565b5b50919050565b7f4e487b7100000000000000000000000000000000000000000000000000000000600052601160045260246000fd5b6000819050919050565b60006128bf826128aa565b91507fffffffffffffffffffffffffffffffffffffffffffffffffffffffffffffffff82036128f1576128f061287b565b5b600182019050919050565b7f6164647265737320646f6e74206d61746368206f7220746865206d657373616760008201527f6520697320616c74657265640000000000000000000000000000000000000000602082015250565b6000612958602c83612486565b9150612963826128fc565b604082019050919050565b600060208201905081810360008301526129878161294b565b9050919050565b600081905092915050565b60008190508160005260206000209050919050565b600081546129bb8161284a565b6129c5818661298e565b945060018216600081146129e057600181146129f157612a24565b60ff19831686528186019350612a24565b6129fa85612999565b60005b83811015612a1c578154818901526001820191506020810190506129fd565b838801955050505b50505092915050565b6000612a3982846129ae565b915081905092915050565b7f70617469656e7420616c72656164792065786973740000000000000000000000600082015250565b6000612a7a601583612486565b9150612a8582612a44565b602082019050919050565b60006020820190508181036000830152612aa981612a6d565b9050919050565b6000612abb8261247b565b612ac5818561298e565b9350612ad5818560208601612497565b80840191505092915050565b6000612aed8284612ab0565b915081905092915050565b7f6164647265737320646f6e74206d61746368206f7220746865206d657373616760008201527f6520697320616c74657265646800000000000000000000000000000000000000602082015250565b6000612b54602d83612486565b9150612b5f82612af8565b604082019050919050565b60006020820190508181036000830152612b8381612b47565b9050919050565b7f70617469656e7420646f6573206e6f7420657869737400000000000000000000600082015250565b6000612bc0601683612486565b9150612bcb82612b8a565b602082019050919050565b60006020820190508181036000830152612bef81612bb3565b9050919050565b7f6164647265737320646f6e74206d617463680000000000000000000000000000600082015250565b6000612c2c601283612486565b9150612c3782612bf6565b602082019050919050565b60006020820190508181036000830152612c5b81612c1f565b9050919050565b612c6b81612389565b82525050565b6000608082019050612c8660008301876126d2565b612c936020830186612c62565b612ca060408301856126d2565b612cad60608301846126d2565b95945050505050565b7f19457468657265756d205369676e6564204d6573736167653a0a333200000000600082015250565b6000612cec601c8361298e565b9150612cf782612cb6565b601c82019050919050565b6000819050919050565b612d1d612d18826123c2565b612d02565b82525050565b6000612d2e82612cdf565b9150612d3a8284612d0c565b6020820191508190509291505056fea2646970667358221220f5c3382ded9d5181158f97e9116e048da3309b31a86b9a39840854320c78b2b464736f6c634300080e0033",
  "immutableReferences": {},
  "source": "pragma solidity >=0.4.22 <0.9.0;\r\ncontract Greeter{\r\n\r\n    string public greeting;\r\n    \r\n\r\n    string[] in_clinic_records;\r\n    //clinic1 address, clinic1 registered_patients, clinic1 records\r\n    address clinic1_address;\r\n    string[] clinic1_records;\r\n    mapping(string => bool) public clini1_patients;\r\n\r\n\r\n    //clinic2 address, clinic2 registered_patients, clinic2 records\r\n    address clinic2_address;\r\n    string[] clinic2_records;\r\n    mapping(string => bool) public clini2_patients;\r\n\r\n\r\n    //clinic3 address, clinic3 registered_patients, clinic3 records\r\n    address clinic3_address;\r\n    string[] clinic3_records;\r\n    mapping(string => bool) public clini3_patients;\r\n\r\n\r\n    // used for splitting a string\r\n    bytes tempNum;\r\n    string id;\r\n    // ------------------------\r\n\r\n        constructor() public {\r\n             greeting = 'Hello';\r\n             clinic1_address = 0xB00B6600F7FF04DFfC91be88342E17C220fC9E5A;// modify with the respective address in the App.ipynb file\r\n             clinic2_address = 0xCC6441c647fb77d1686F3528AFf788E39201d283;// modify with the respective address in the App.ipynb file\r\n             clinic3_address = 0xBCCD9d91b8D9Ff6D5bE20b7cDCbF36E0bE1fEcEB; // modify with the respective address in the App.ipynb file\r\n         }\r\n\r\n        function add_patient(string memory _message, uint8 v, bytes32 r, bytes32 s) public {\r\n\r\n            bytes32 messageHash = getMessageHash(_message);\r\n            bytes32 ethSignedMessageHash = getEthSignedMessageHash(messageHash);\r\n            address retrived_address = ret_add(ethSignedMessageHash, v, r, s);\r\n\r\n            \r\n            \r\n            // making sure that the sender correspond to the address and the message is not altered\r\n            require(retrived_address == msg.sender, 'address dont match or the message is altered');\r\n            if(msg.sender == clinic1_address) {   \r\n\r\n                // fetch the patient id\r\n                splitStr(_message, '#');\r\n                // make sure that this patient is not registered\r\n                require(!clini1_patients[id], 'patient already exist');\r\n                //add the patient record to the clinic records\r\n                clinic1_records.push(_message);\r\n                // patient added\r\n                clini1_patients[id] = true;\r\n                greeting = '1';\r\n\r\n            } else if(msg.sender == clinic2_address){\r\n\r\n                // fetch the patient id\r\n                splitStr(_message, '#');\r\n                // make sure that this patient is not registered\r\n                require(!clini2_patients[id], 'patient already exist');\r\n                //add the patient record to the clinic records\r\n                clinic2_records.push(_message);\r\n                // patient added\r\n                clini2_patients[id] = true;\r\n                greeting = '2';\r\n\r\n            } else {\r\n                // fetch the patient id\r\n                splitStr(_message, '#');\r\n                // make sure that this patient is not registered\r\n                require(!clini3_patients[id], 'patient already exist');\r\n                //add the patient record to the clinic records\r\n                clinic3_records.push(_message);\r\n                // patient added\r\n                clini3_patients[id] = true;\r\n                greeting = '3';\r\n            }       \r\n                \r\n        }\r\n\r\n        function add_reg_visit(string memory _message, uint8 v, bytes32 r, bytes32 s) public {\r\n\r\n            bytes32 messageHash = getMessageHash(_message);\r\n            bytes32 ethSignedMessageHash = getEthSignedMessageHash(messageHash);\r\n            address retrived_address = ret_add(ethSignedMessageHash, v, r, s);\r\n\r\n            \r\n            \r\n            // making sure that the sender correspond to the address\r\n            require(retrived_address == msg.sender, 'address dont match or the message is altered');\r\n            \r\n            if(msg.sender == clinic1_address) {   \r\n\r\n                // fetch the patient id\r\n                splitStr(_message, '#');\r\n                // make sure that this patient is registered\r\n                require(clini1_patients[id], 'patient does not exist');\r\n                //add the patient record to the clinic records\r\n                clinic1_records.push(_message);\r\n                \r\n                greeting = '2-1';\r\n\r\n            } else if(msg.sender == clinic2_address){\r\n\r\n                // fetch the patient id\r\n                splitStr(_message, '#');\r\n                // make sure that this patient is not registered\r\n                require(clini2_patients[id], 'patient does not exist');\r\n                //add the patient record to the clinic records\r\n                clinic2_records.push(_message);\r\n                \r\n                greeting = '2-2';\r\n\r\n            } else {\r\n                // fetch the patient id\r\n                splitStr(_message, '#');\r\n                // make sure that this patient is not registered\r\n                require(clini3_patients[id], 'patient does not exist');\r\n                //add the patient record to the clinic records\r\n                clinic3_records.push(_message);\r\n                \r\n                greeting = '2-3';\r\n            }       \r\n            \r\n        }\r\n\r\n        function add_lab_visit(string memory _message, uint8 v, bytes32 r, bytes32 s) public {\r\n\r\n            bytes32 messageHash = getMessageHash(_message);\r\n            bytes32 ethSignedMessageHash = getEthSignedMessageHash(messageHash);\r\n            address retrived_address = ret_add(ethSignedMessageHash, v, r, s);\r\n\r\n            \r\n            // making sure that the sender correspond to the address\r\n            require(retrived_address == msg.sender, 'address dont match or the message is alteredh');\r\n\r\n            if(msg.sender == clinic1_address) {   \r\n\r\n                // fetch the patient id\r\n                splitStr(_message, '#');\r\n                // make sure that this patient is registered\r\n                require(clini1_patients[id], 'patient does not exist');\r\n                //add the patient record to the clinic records\r\n                clinic1_records.push(_message);\r\n                \r\n                greeting = '3-1';\r\n\r\n            } else if(msg.sender == clinic2_address){\r\n\r\n                // fetch the patient id\r\n                splitStr(_message, '#');\r\n                // make sure that this patient is not registered\r\n                require(clini2_patients[id], 'patient does not exist');\r\n                //add the patient record to the clinic records\r\n                clinic2_records.push(_message);\r\n                \r\n                greeting = '3-2';\r\n\r\n            } else {\r\n                // fetch the patient id\r\n                splitStr(_message, '#');\r\n                // make sure that this patient is not registered\r\n                require(clini3_patients[id], 'patient does not exist');\r\n                //add the patient record to the clinic records\r\n                clinic3_records.push(_message);\r\n                \r\n                greeting = '3-3';\r\n            }       \r\n            \r\n        }\r\n\r\n        function define_records(string memory _message, uint8 v, bytes32 r, bytes32 s) public{\r\n\r\n            bytes32 messageHash = getMessageHash(_message);\r\n            bytes32 ethSignedMessageHash = getEthSignedMessageHash(messageHash);\r\n            address retrived_address = ret_add(ethSignedMessageHash, v, r, s);\r\n                        \r\n            // making sure that the sender correspond to the address\r\n            require(retrived_address == msg.sender, 'address dont match');\r\n\r\n            if(msg.sender == clinic1_address) {  \r\n\r\n                require(clini1_patients[_message], 'patient does not exist');\r\n                in_clinic_records = clinic1_records;\r\n\r\n            } else if(msg.sender == clinic2_address){\r\n\r\n                require(clini2_patients[_message], 'patient does not exist');\r\n                in_clinic_records = clinic2_records;\r\n\r\n            } else {\r\n                require(clini3_patients[_message], 'patient does not exist');\r\n                in_clinic_records = clinic3_records;\r\n            }       \r\n            \r\n        }\r\n\r\n        function retrive_records() public returns (string[] memory)\r\n        {\r\n            return in_clinic_records;\r\n        }\r\n\r\n        //////////////////////////////////////////// helpers ////////////////////////////////////////////////\r\n        \r\n        function retrive_records1() public returns (string[] memory)\r\n        {\r\n            return clinic1_records;\r\n        }\r\n\r\n        function retrive_records2() public returns (string[] memory)\r\n        {\r\n            return clinic2_records;\r\n        }\r\n\r\n        function retrive_records3() public returns (string[] memory)\r\n        {\r\n            return clinic3_records;\r\n        }\r\n\r\n        function ret_add(bytes32 _ethSignedMessageHash, uint8 v, bytes32 r, bytes32 s) public returns(address)\r\n        {\r\n            return ecrecover(_ethSignedMessageHash, v, r, s);\r\n        }\r\n\r\n\r\n        function greet() view public returns (string memory) {\r\n             return greeting;\r\n        }\r\n\r\n\r\n        function check1() view public returns (string memory ) {\r\n             return clinic1_records[0];\r\n        }\r\n\r\n        function check2(string memory _message) view public returns (bool) {\r\n             return clini1_patients[_message];\r\n        }\r\n\r\n        function getMessageHash(\r\n                string memory _message\r\n            ) public pure returns (bytes32) {\r\n                return keccak256(abi.encodePacked(_message));\r\n            }\r\n\r\n        function getEthSignedMessageHash(bytes32 _messageHash)\r\n            public\r\n            pure\r\n            returns (bytes32)\r\n        {\r\n            return\r\n                keccak256(\r\n                    abi.encodePacked(\"\\x19Ethereum Signed Message:\\n32\", _messageHash)\r\n                );\r\n        }\r\n\r\n        \r\n        function splitStr(string memory str, string memory delimiter) public { //delimiter can be any character that separates the integers \r\n\r\n        bytes memory b = bytes(str); //cast the string to bytes to iterate\r\n        bytes memory delm = bytes(delimiter);\r\n        \r\n        for(uint i; i<b.length ; i++){          \r\n\r\n            if(b[i] != delm[0]) { //check if a not space\r\n                tempNum.push(b[i]);             \r\n            }\r\n            else { \r\n                id = string(tempNum);\r\n                tempNum = \"\";   //reset the tempNum to catch the net number        \r\n                return;         \r\n            }                \r\n        }\r\n        }\r\n}",
  "sourcePath": "C:\\Users\\mo7amad mo3taz\\Desktop\\security project\\python_edition\\pythonDapp\\contracts\\Greeter.sol",
  "compiler": {
    "name": "solc",
    "version": "0.8.14+commit.80d49f37.Emscripten.clang"
  },
  "schemaVersion": "3.4.7",
  "updatedAt": "2022-06-13T20:34:26.619Z",
  "devdoc": {
    "kind": "dev",
    "methods": {},
    "version": 1
  },
  "userdoc": {
    "kind": "user",
    "methods": {},
    "version": 1
  }
}